{
  "contractName": "OnlineMarketPlace",
  "abi": [
    {
      "constant": true,
      "inputs": [
        {
          "name": "",
          "type": "address"
        }
      ],
      "name": "storeOwners",
      "outputs": [
        {
          "name": "userAddress",
          "type": "address"
        },
        {
          "name": "firstName",
          "type": "string"
        },
        {
          "name": "lastName",
          "type": "string"
        },
        {
          "name": "emailAddress",
          "type": "string"
        }
      ],
      "payable": false,
      "stateMutability": "view",
      "type": "function"
    },
    {
      "constant": false,
      "inputs": [
        {
          "name": "_firstName",
          "type": "string"
        },
        {
          "name": "_lastName",
          "type": "string"
        },
        {
          "name": "_emailAddress",
          "type": "string"
        },
        {
          "name": "_stopped",
          "type": "bool"
        }
      ],
      "name": "registerStoreAdminDetails",
      "outputs": [
        {
          "name": "",
          "type": "bool"
        }
      ],
      "payable": false,
      "stateMutability": "nonpayable",
      "type": "function"
    },
    {
      "constant": true,
      "inputs": [],
      "name": "getStoreAdminDetails",
      "outputs": [
        {
          "name": "",
          "type": "address"
        },
        {
          "name": "",
          "type": "string"
        },
        {
          "name": "",
          "type": "string"
        },
        {
          "name": "",
          "type": "string"
        },
        {
          "name": "",
          "type": "bool"
        }
      ],
      "payable": false,
      "stateMutability": "view",
      "type": "function"
    },
    {
      "constant": true,
      "inputs": [
        {
          "name": "",
          "type": "address"
        },
        {
          "name": "",
          "type": "uint256"
        }
      ],
      "name": "storeTransactions",
      "outputs": [
        {
          "name": "productCode",
          "type": "uint256"
        },
        {
          "name": "price",
          "type": "uint256"
        },
        {
          "name": "quantity",
          "type": "uint256"
        },
        {
          "name": "buyerAddress",
          "type": "address"
        },
        {
          "name": "sellerAddress",
          "type": "address"
        },
        {
          "name": "orderedDate",
          "type": "uint256"
        },
        {
          "name": "firstName",
          "type": "string"
        },
        {
          "name": "lastName",
          "type": "string"
        },
        {
          "name": "deliveryAddress",
          "type": "string"
        }
      ],
      "payable": false,
      "stateMutability": "view",
      "type": "function"
    },
    {
      "constant": true,
      "inputs": [],
      "name": "stopped",
      "outputs": [
        {
          "name": "",
          "type": "bool"
        }
      ],
      "payable": false,
      "stateMutability": "view",
      "type": "function"
    },
    {
      "constant": true,
      "inputs": [
        {
          "name": "",
          "type": "address"
        },
        {
          "name": "",
          "type": "uint256"
        }
      ],
      "name": "storeOwnerProducts",
      "outputs": [
        {
          "name": "storeOwnerAddress",
          "type": "address"
        },
        {
          "name": "productCode",
          "type": "uint256"
        },
        {
          "name": "price",
          "type": "uint256"
        },
        {
          "name": "quantity",
          "type": "uint256"
        }
      ],
      "payable": false,
      "stateMutability": "view",
      "type": "function"
    },
    {
      "anonymous": false,
      "inputs": [
        {
          "indexed": true,
          "name": "storeAdminAddress",
          "type": "address"
        },
        {
          "indexed": false,
          "name": "firstName",
          "type": "string"
        },
        {
          "indexed": false,
          "name": "lastName",
          "type": "string"
        },
        {
          "indexed": false,
          "name": "emailAddress",
          "type": "string"
        },
        {
          "indexed": false,
          "name": "stopped",
          "type": "bool"
        }
      ],
      "name": "storeOwnerRegistrationEvent",
      "type": "event"
    },
    {
      "constant": true,
      "inputs": [],
      "name": "getStoreBalance",
      "outputs": [
        {
          "name": "",
          "type": "uint256"
        }
      ],
      "payable": false,
      "stateMutability": "view",
      "type": "function"
    },
    {
      "constant": false,
      "inputs": [
        {
          "name": "_storeOwnerAddress",
          "type": "address"
        },
        {
          "name": "_productCode",
          "type": "uint256"
        },
        {
          "name": "_quantity",
          "type": "uint256"
        },
        {
          "name": "_firstName",
          "type": "string"
        },
        {
          "name": "_lastName",
          "type": "string"
        },
        {
          "name": "_derliveryAddress",
          "type": "string"
        }
      ],
      "name": "buyProduct",
      "outputs": [
        {
          "name": "",
          "type": "bool"
        }
      ],
      "payable": true,
      "stateMutability": "payable",
      "type": "function"
    },
    {
      "constant": false,
      "inputs": [
        {
          "name": "_productCode",
          "type": "uint256"
        },
        {
          "name": "_newPrice",
          "type": "uint256"
        }
      ],
      "name": "changeProductPrice",
      "outputs": [
        {
          "name": "",
          "type": "bool"
        }
      ],
      "payable": false,
      "stateMutability": "nonpayable",
      "type": "function"
    },
    {
      "constant": false,
      "inputs": [
        {
          "name": "_productCode",
          "type": "uint256"
        },
        {
          "name": "_price",
          "type": "uint256"
        },
        {
          "name": "_quantity",
          "type": "uint256"
        }
      ],
      "name": "addProduct",
      "outputs": [
        {
          "name": "",
          "type": "bool"
        }
      ],
      "payable": false,
      "stateMutability": "nonpayable",
      "type": "function"
    },
    {
      "constant": false,
      "inputs": [
        {
          "name": "_productCode",
          "type": "uint256"
        }
      ],
      "name": "removeProduct",
      "outputs": [
        {
          "name": "",
          "type": "bool"
        }
      ],
      "payable": false,
      "stateMutability": "nonpayable",
      "type": "function"
    },
    {
      "constant": true,
      "inputs": [],
      "name": "getAllProductCodes",
      "outputs": [
        {
          "name": "",
          "type": "uint256[]"
        }
      ],
      "payable": false,
      "stateMutability": "view",
      "type": "function"
    },
    {
      "constant": true,
      "inputs": [
        {
          "name": "_productCode",
          "type": "uint256"
        }
      ],
      "name": "getProductDetails",
      "outputs": [
        {
          "name": "",
          "type": "address"
        },
        {
          "name": "",
          "type": "uint256"
        },
        {
          "name": "",
          "type": "uint256"
        },
        {
          "name": "",
          "type": "uint256"
        }
      ],
      "payable": false,
      "stateMutability": "view",
      "type": "function"
    },
    {
      "constant": true,
      "inputs": [
        {
          "name": "_productCode",
          "type": "uint256"
        }
      ],
      "name": "checkProductAvailability",
      "outputs": [
        {
          "name": "",
          "type": "bool"
        }
      ],
      "payable": false,
      "stateMutability": "view",
      "type": "function"
    },
    {
      "constant": false,
      "inputs": [
        {
          "name": "_storeOwnerAddress",
          "type": "address"
        },
        {
          "name": "_firstName",
          "type": "string"
        },
        {
          "name": "_lastName",
          "type": "string"
        },
        {
          "name": "_emailAddress",
          "type": "string"
        }
      ],
      "name": "addStoreOwner",
      "outputs": [
        {
          "name": "",
          "type": "address"
        }
      ],
      "payable": false,
      "stateMutability": "nonpayable",
      "type": "function"
    },
    {
      "constant": true,
      "inputs": [],
      "name": "getAllStoreOwners",
      "outputs": [
        {
          "name": "",
          "type": "address[]"
        }
      ],
      "payable": false,
      "stateMutability": "view",
      "type": "function"
    },
    {
      "constant": true,
      "inputs": [
        {
          "name": "_storeOwnerAddress",
          "type": "address"
        }
      ],
      "name": "getStoreOwnerDetails",
      "outputs": [
        {
          "name": "",
          "type": "address"
        },
        {
          "name": "",
          "type": "string"
        },
        {
          "name": "",
          "type": "string"
        },
        {
          "name": "",
          "type": "string"
        }
      ],
      "payable": false,
      "stateMutability": "view",
      "type": "function"
    }
  ],
  "bytecode": "0x608060405260008060006101000a81548160ff02191690831515021790555033600060016101000a81548173ffffffffffffffffffffffffffffffffffffffff021916908373ffffffffffffffffffffffffffffffffffffffff160217905550613d3c8061006e6000396000f3006080604052600436106100f1576000357c0100000000000000000000000000000000000000000000000000000000900463ffffffff168063057cc2a1146100f65780630d904920146102bd57806322d69f7a1461032957806330e8459d146104425780634d7d82b7146105e85780635ee95cae146107af57806361917cbc146107f45780636748ff17146109285780636813b53b14610b4857806375f12b2114610bca578063832725d714610bf957806393eb5d5414610c9b5780639937b38f14610ce0578063e95dc1f714610d39578063eefc4abe14610e8e578063f05fae6814610efa578063f1d36cbc14610f25575b600080fd5b34801561010257600080fd5b50610137600480360381019080803573ffffffffffffffffffffffffffffffffffffffff169060200190929190505050610f74565b604051808573ffffffffffffffffffffffffffffffffffffffff1673ffffffffffffffffffffffffffffffffffffffff168152602001806020018060200180602001848103845287818151815260200191508051906020019080838360005b838110156101b1578082015181840152602081019050610196565b50505050905090810190601f1680156101de5780820380516001836020036101000a031916815260200191505b50848103835286818151815260200191508051906020019080838360005b838110156102175780820151818401526020810190506101fc565b50505050905090810190601f1680156102445780820380516001836020036101000a031916815260200191505b50848103825285818151815260200191508051906020019080838360005b8381101561027d578082015181840152602081019050610262565b50505050905090810190601f1680156102aa5780820380516001836020036101000a031916815260200191505b5097505050505050505060405180910390f35b3480156102c957600080fd5b506102d261118c565b6040518080602001828103825283818151815260200191508051906020019060200280838360005b838110156103155780820151818401526020810190506102fa565b505050509050019250505060405180910390f35b34801561033557600080fd5b50610428600480360381019080803590602001908201803590602001908080601f0160208091040260200160405190810160405280939291908181526020018383808284378201915050505050509192919290803590602001908201803590602001908080601f0160208091040260200160405190810160405280939291908181526020018383808284378201915050505050509192919290803590602001908201803590602001908080601f016020809104026020016040519081016040528093929190818152602001838380828437820191505050505050919291929080351515906020019092919050505061121a565b604051808215151515815260200191505060405180910390f35b34801561044e57600080fd5b50610457611593565b604051808673ffffffffffffffffffffffffffffffffffffffff1673ffffffffffffffffffffffffffffffffffffffff16815260200180602001806020018060200185151515158152602001848103845288818151815260200191508051906020019080838360005b838110156104db5780820151818401526020810190506104c0565b50505050905090810190601f1680156105085780820380516001836020036101000a031916815260200191505b50848103835287818151815260200191508051906020019080838360005b83811015610541578082015181840152602081019050610526565b50505050905090810190601f16801561056e5780820380516001836020036101000a031916815260200191505b50848103825286818151815260200191508051906020019080838360005b838110156105a757808201518184015260208101905061058c565b50505050905090810190601f1680156105d45780820380516001836020036101000a031916815260200191505b509850505050505050505060405180910390f35b3480156105f457600080fd5b50610629600480360381019080803573ffffffffffffffffffffffffffffffffffffffff1690602001909291905050506117b8565b604051808573ffffffffffffffffffffffffffffffffffffffff1673ffffffffffffffffffffffffffffffffffffffff168152602001806020018060200180602001848103845287818151815260200191508051906020019080838360005b838110156106a3578082015181840152602081019050610688565b50505050905090810190601f1680156106d05780820380516001836020036101000a031916815260200191505b50848103835286818151815260200191508051906020019080838360005b838110156107095780820151818401526020810190506106ee565b50505050905090810190601f1680156107365780820380516001836020036101000a031916815260200191505b50848103825285818151815260200191508051906020019080838360005b8381101561076f578082015181840152602081019050610754565b50505050905090810190601f16801561079c5780820380516001836020036101000a031916815260200191505b5097505050505050505060405180910390f35b3480156107bb57600080fd5b506107da60048036038101908080359060200190929190505050611acb565b604051808215151515815260200191505060405180910390f35b61090e600480360381019080803573ffffffffffffffffffffffffffffffffffffffff1690602001909291908035906020019092919080359060200190929190803590602001908201803590602001908080601f0160208091040260200160405190810160405280939291908181526020018383808284378201915050505050509192919290803590602001908201803590602001908080601f0160208091040260200160405190810160405280939291908181526020018383808284378201915050505050509192919290803590602001908201803590602001908080601f0160208091040260200160405190810160405280939291908181526020018383808284378201915050505050509192919290505050611cd4565b604051808215151515815260200191505060405180910390f35b34801561093457600080fd5b50610973600480360381019080803573ffffffffffffffffffffffffffffffffffffffff16906020019092919080359060200190929190505050612447565b604051808a81526020018981526020018881526020018773ffffffffffffffffffffffffffffffffffffffff1673ffffffffffffffffffffffffffffffffffffffff1681526020018673ffffffffffffffffffffffffffffffffffffffff1673ffffffffffffffffffffffffffffffffffffffff168152602001858152602001806020018060200180602001848103845287818151815260200191508051906020019080838360005b83811015610a37578082015181840152602081019050610a1c565b50505050905090810190601f168015610a645780820380516001836020036101000a031916815260200191505b50848103835286818151815260200191508051906020019080838360005b83811015610a9d578082015181840152602081019050610a82565b50505050905090810190601f168015610aca5780820380516001836020036101000a031916815260200191505b50848103825285818151815260200191508051906020019080838360005b83811015610b03578082015181840152602081019050610ae8565b50505050905090810190601f168015610b305780820380516001836020036101000a031916815260200191505b509c5050505050505050505050505060405180910390f35b348015610b5457600080fd5b50610b73600480360381019080803590602001909291905050506126b9565b604051808573ffffffffffffffffffffffffffffffffffffffff1673ffffffffffffffffffffffffffffffffffffffff16815260200184815260200183815260200182815260200194505050505060405180910390f35b348015610bd657600080fd5b50610bdf612963565b604051808215151515815260200191505060405180910390f35b348015610c0557600080fd5b50610c44600480360381019080803573ffffffffffffffffffffffffffffffffffffffff16906020019092919080359060200190929190505050612975565b604051808573ffffffffffffffffffffffffffffffffffffffff1673ffffffffffffffffffffffffffffffffffffffff16815260200184815260200183815260200182815260200194505050505060405180910390f35b348015610ca757600080fd5b50610cc6600480360381019080803590602001909291905050506129e1565b604051808215151515815260200191505060405180910390f35b348015610cec57600080fd5b50610d1f600480360381019080803590602001909291908035906020019092919080359060200190929190505050612bcb565b604051808215151515815260200191505060405180910390f35b348015610d4557600080fd5b50610e4c600480360381019080803573ffffffffffffffffffffffffffffffffffffffff169060200190929190803590602001908201803590602001908080601f0160208091040260200160405190810160405280939291908181526020018383808284378201915050505050509192919290803590602001908201803590602001908080601f0160208091040260200160405190810160405280939291908181526020018383808284378201915050505050509192919290803590602001908201803590602001908080601f016020809104026020016040519081016040528093929190818152602001838380828437820191505050505050919291929050505061300e565b604051808273ffffffffffffffffffffffffffffffffffffffff1673ffffffffffffffffffffffffffffffffffffffff16815260200191505060405180910390f35b348015610e9a57600080fd5b50610ea3613404565b6040518080602001828103825283818151815260200191508051906020019060200280838360005b83811015610ee6578082015181840152602081019050610ecb565b505050509050019250505060405180910390f35b348015610f0657600080fd5b50610f0f6135a6565b6040518082815260200191505060405180910390f35b348015610f3157600080fd5b50610f5a6004803603810190808035906020019092919080359060200190929190505050613965565b604051808215151515815260200191505060405180910390f35b60056020528060005260406000206000915090508060000160009054906101000a900473ffffffffffffffffffffffffffffffffffffffff1690806001018054600181600116156101000203166002900480601f0160208091040260200160405190810160405280929190818152602001828054600181600116156101000203166002900480156110465780601f1061101b57610100808354040283529160200191611046565b820191906000526020600020905b81548152906001019060200180831161102957829003601f168201915b505050505090806002018054600181600116156101000203166002900480601f0160208091040260200160405190810160405280929190818152602001828054600181600116156101000203166002900480156110e45780601f106110b9576101008083540402835291602001916110e4565b820191906000526020600020905b8154815290600101906020018083116110c757829003601f168201915b505050505090806003018054600181600116156101000203166002900480601f0160208091040260200160405190810160405280929190818152602001828054600181600116156101000203166002900480156111825780601f1061115757610100808354040283529160200191611182565b820191906000526020600020905b81548152906001019060200180831161116557829003601f168201915b5050505050905084565b6060600480548060200260200160405190810160405280929190818152602001828054801561121057602002820191906000526020600020905b8160009054906101000a900473ffffffffffffffffffffffffffffffffffffffff1673ffffffffffffffffffffffffffffffffffffffff16815260200190600101908083116111c6575b5050505050905090565b60008060019054906101000a900473ffffffffffffffffffffffffffffffffffffffff1673ffffffffffffffffffffffffffffffffffffffff163373ffffffffffffffffffffffffffffffffffffffff16141515611306576040517f08c379a00000000000000000000000000000000000000000000000000000000081526004018080602001828103825260288152602001807f4f6e6c792073746f72652061646d696e2063616e2063616c6c2074686973206681526020017f756e6374696f6e2e00000000000000000000000000000000000000000000000081525060400191505060405180910390fd5b846001908051906020019061131c929190613b2f565b508360029080519060200190611333929190613b2f565b50826003908051906020019061134a929190613b2f565b50816000806101000a81548160ff021916908315150217905550600060019054906101000a900473ffffffffffffffffffffffffffffffffffffffff1673ffffffffffffffffffffffffffffffffffffffff167f1dc7a2141ebeb398758fc738d5d19357c3c9efff72f48ed15481d02e5c6e41aa6001600260036000809054906101000a900460ff16604051808060200180602001806020018515151515815260200184810384528881815460018160011615610100020316600290048152602001915080546001816001161561010002031660029004801561146e5780601f106114435761010080835404028352916020019161146e565b820191906000526020600020905b81548152906001019060200180831161145157829003601f168201915b50508481038352878181546001816001161561010002031660029004815260200191508054600181600116156101000203166002900480156114f15780601f106114c6576101008083540402835291602001916114f1565b820191906000526020600020905b8154815290600101906020018083116114d457829003601f168201915b50508481038252868181546001816001161561010002031660029004815260200191508054600181600116156101000203166002900480156115745780601f1061154957610100808354040283529160200191611574565b820191906000526020600020905b81548152906001019060200180831161155757829003601f168201915b505097505050505050505060405180910390a260019050949350505050565b6000606080606060008060019054906101000a900473ffffffffffffffffffffffffffffffffffffffff166001600260036000809054906101000a900460ff16838054600181600116156101000203166002900480601f0160208091040260200160405190810160405280929190818152602001828054600181600116156101000203166002900480156116685780601f1061163d57610100808354040283529160200191611668565b820191906000526020600020905b81548152906001019060200180831161164b57829003601f168201915b50505050509350828054600181600116156101000203166002900480601f0160208091040260200160405190810160405280929190818152602001828054600181600116156101000203166002900480156117045780601f106116d957610100808354040283529160200191611704565b820191906000526020600020905b8154815290600101906020018083116116e757829003601f168201915b50505050509250818054600181600116156101000203166002900480601f0160208091040260200160405190810160405280929190818152602001828054600181600116156101000203166002900480156117a05780601f10611775576101008083540402835291602001916117a0565b820191906000526020600020905b81548152906001019060200180831161178357829003601f168201915b50505050509150945094509450945094509091929394565b60006060806060600560008673ffffffffffffffffffffffffffffffffffffffff1673ffffffffffffffffffffffffffffffffffffffff16815260200190815260200160002060000160009054906101000a900473ffffffffffffffffffffffffffffffffffffffff16600560008773ffffffffffffffffffffffffffffffffffffffff1673ffffffffffffffffffffffffffffffffffffffff168152602001908152602001600020600101600560008873ffffffffffffffffffffffffffffffffffffffff1673ffffffffffffffffffffffffffffffffffffffff168152602001908152602001600020600201600560008973ffffffffffffffffffffffffffffffffffffffff1673ffffffffffffffffffffffffffffffffffffffff168152602001908152602001600020600301828054600181600116156101000203166002900480601f01602080910402602001604051908101604052809291908181526020018280546001816001161561010002031660029004801561197d5780601f106119525761010080835404028352916020019161197d565b820191906000526020600020905b81548152906001019060200180831161196057829003601f168201915b50505050509250818054600181600116156101000203166002900480601f016020809104026020016040519081016040528092919081815260200182805460018160011615610100020316600290048015611a195780601f106119ee57610100808354040283529160200191611a19565b820191906000526020600020905b8154815290600101906020018083116119fc57829003601f168201915b50505050509150808054600181600116156101000203166002900480601f016020809104026020016040519081016040528092919081815260200182805460018160011615610100020316600290048015611ab55780601f10611a8a57610100808354040283529160200191611ab5565b820191906000526020600020905b815481529060010190602001808311611a9857829003601f168201915b5050505050905093509350935093509193509193565b60008060008060009054906101000a900460ff16151515611aeb57600080fd5b600660003373ffffffffffffffffffffffffffffffffffffffff1673ffffffffffffffffffffffffffffffffffffffff1681526020019081526020016000209150600090505b8180549050811015611c56578181815481101515611b4b57fe5b906000526020600020906004020160010154841415611c4957816001838054905003815481101515611b7957fe5b90600052602060002090600402018282815481101515611b9557fe5b90600052602060002090600402016000820160009054906101000a900473ffffffffffffffffffffffffffffffffffffffff168160000160006101000a81548173ffffffffffffffffffffffffffffffffffffffff021916908373ffffffffffffffffffffffffffffffffffffffff16021790555060018201548160010155600282015481600201556003820154816003015590505081805480919060019003611c3f9190613baf565b5060019250611ccd565b8080600101915050611b31565b60001515611ccc576040517f08c379a00000000000000000000000000000000000000000000000000000000081526004018080602001828103825260158152602001807f4e6f20737563682070726f6475637420666f756e64000000000000000000000081525060200191505060405180910390fd5b5b5050919050565b60008060008060009054906101000a900460ff16151515611cf457600080fd5b600660008a73ffffffffffffffffffffffffffffffffffffffff1673ffffffffffffffffffffffffffffffffffffffff1681526020019081526020016000209150600090505b8180549050811015612436578181815481101515611d5457fe5b906000526020600020906004020160010154881415612429573373ffffffffffffffffffffffffffffffffffffffff168282815481101515611d9257fe5b906000526020600020906004020160000160009054906101000a900473ffffffffffffffffffffffffffffffffffffffff1673ffffffffffffffffffffffffffffffffffffffff1614151515611e76576040517f08c379a00000000000000000000000000000000000000000000000000000000081526004018080602001828103825260318152602001807f53656c6c6572206973206e6f7420616c6c6f7720746f206275792066726f6d2081526020017f69742773206f776e2073746f7265203a2900000000000000000000000000000081525060400191505060405180910390fd5b868282815481101515611e8557fe5b90600052602060002090600402016003015410151515611f59576040517f08c379a00000000000000000000000000000000000000000000000000000000081526004018080602001828103825260448152602001807f536f727279207468652070726f647563742069732063757272656e746c79206f81526020017f7574206f662073746f636b2e20506c656173652074727920616761696e206c6181526020017f7465722e0000000000000000000000000000000000000000000000000000000081525060600191505060405180910390fd5b73__OnlineMarketPlaceLibrary______________63cbcd55828383815481101515611f8157fe5b906000526020600020906004020160020154896040518363ffffffff167c0100000000000000000000000000000000000000000000000000000000028152600401808381526020018281526020019250505060206040518083038186803b158015611feb57600080fd5b505af4158015611fff573d6000803e3d6000fd5b505050506040513d602081101561201557600080fd5b8101908080519060200190929190505050341015151561210f576040517f08c379a00000000000000000000000000000000000000000000000000000000081526004018080602001828103825260708152602001807f416d6f756e742070616964206973206e6f7420656e6f75676820666f7220746881526020017f6973207472616e73616374696f6e20746f20636f6d706c65746520737563636581526020017f737366756c6c792e20506c6561736520636865636b2074686520616d6f756e7481526020017f207061696420616e642072657472792e0000000000000000000000000000000081525060800191505060405180910390fd5b818181548110151561211d57fe5b906000526020600020906004020160000160009054906101000a900473ffffffffffffffffffffffffffffffffffffffff1673ffffffffffffffffffffffffffffffffffffffff166108fc349081150290604051600060405180830381858888f19350505050158015612194573d6000803e3d6000fd5b508682828154811015156121a457fe5b9060005260206000209060040201600301540382828154811015156121c557fe5b906000526020600020906004020160030181905550600760008a73ffffffffffffffffffffffffffffffffffffffff1673ffffffffffffffffffffffffffffffffffffffff168152602001908152602001600020610120604051908101604052808a8152602001848481548110151561223a57fe5b90600052602060002090600402016002015481526020018981526020013373ffffffffffffffffffffffffffffffffffffffff168152602001848481548110151561228157fe5b906000526020600020906004020160000160009054906101000a900473ffffffffffffffffffffffffffffffffffffffff1673ffffffffffffffffffffffffffffffffffffffff168152602001428152602001888152602001878152602001868152509080600181540180825580915050906001820390600052602060002090600902016000909192909190915060008201518160000155602082015181600101556040820151816002015560608201518160030160006101000a81548173ffffffffffffffffffffffffffffffffffffffff021916908373ffffffffffffffffffffffffffffffffffffffff16021790555060808201518160040160006101000a81548173ffffffffffffffffffffffffffffffffffffffff021916908373ffffffffffffffffffffffffffffffffffffffff16021790555060a0820151816005015560c08201518160060190805190602001906123e1929190613be1565b5060e08201518160070190805190602001906123fe929190613be1565b5061010082015181600801908051906020019061241c929190613be1565b505050506001925061243b565b8080600101915050611d3a565b600092505b50509695505050505050565b60076020528160005260406000208181548110151561246257fe5b9060005260206000209060090201600091509150508060000154908060010154908060020154908060030160009054906101000a900473ffffffffffffffffffffffffffffffffffffffff16908060040160009054906101000a900473ffffffffffffffffffffffffffffffffffffffff1690806005015490806006018054600181600116156101000203166002900480601f0160208091040260200160405190810160405280929190818152602001828054600181600116156101000203166002900480156125735780601f1061254857610100808354040283529160200191612573565b820191906000526020600020905b81548152906001019060200180831161255657829003601f168201915b505050505090806007018054600181600116156101000203166002900480601f0160208091040260200160405190810160405280929190818152602001828054600181600116156101000203166002900480156126115780601f106125e657610100808354040283529160200191612611565b820191906000526020600020905b8154815290600101906020018083116125f457829003601f168201915b505050505090806008018054600181600116156101000203166002900480601f0160208091040260200160405190810160405280929190818152602001828054600181600116156101000203166002900480156126af5780601f10612684576101008083540402835291602001916126af565b820191906000526020600020905b81548152906001019060200180831161269257829003601f168201915b5050505050905089565b600080600080606060006126cc876129e1565b1515612740576040517f08c379a00000000000000000000000000000000000000000000000000000000081526004018080602001828103825260158152602001807f4e6f20737563682070726f6475637420666f756e64000000000000000000000081525060200191505060405180910390fd5b600660003373ffffffffffffffffffffffffffffffffffffffff1673ffffffffffffffffffffffffffffffffffffffff168152602001908152602001600020805480602002602001604051908101604052809291908181526020016000905b828210156128465783829060005260206000209060040201608060405190810160405290816000820160009054906101000a900473ffffffffffffffffffffffffffffffffffffffff1673ffffffffffffffffffffffffffffffffffffffff1673ffffffffffffffffffffffffffffffffffffffff16815260200160018201548152602001600282015481526020016003820154815250508152602001906001019061279f565b505050509150600090505b8151811015612959573373ffffffffffffffffffffffffffffffffffffffff16828281518110151561287f57fe5b906020019060200201516000015173ffffffffffffffffffffffffffffffffffffffff161480156128ca57508682828151811015156128ba57fe5b9060200190602002015160200151145b1561294c5781818151811015156128dd57fe5b906020019060200201516000015182828151811015156128f957fe5b9060200190602002015160200151838381518110151561291557fe5b9060200190602002015160400151848481518110151561293157fe5b9060200190602002015160600151955095509550955061295a565b8080600101915050612851565b5b50509193509193565b6000809054906101000a900460ff1681565b60066020528160005260406000208181548110151561299057fe5b9060005260206000209060040201600091509150508060000160009054906101000a900473ffffffffffffffffffffffffffffffffffffffff16908060010154908060020154908060030154905084565b600060606000600660003373ffffffffffffffffffffffffffffffffffffffff1673ffffffffffffffffffffffffffffffffffffffff168152602001908152602001600020805480602002602001604051908101604052809291908181526020016000905b82821015612aed5783829060005260206000209060040201608060405190810160405290816000820160009054906101000a900473ffffffffffffffffffffffffffffffffffffffff1673ffffffffffffffffffffffffffffffffffffffff1673ffffffffffffffffffffffffffffffffffffffff168152602001600182015481526020016002820154815260200160038201548152505081526020019060010190612a46565b505050509150600090505b81518160ff161015612bbf573373ffffffffffffffffffffffffffffffffffffffff16828260ff16815181101515612b2c57fe5b906020019060200201516000015173ffffffffffffffffffffffffffffffffffffffff16148015612b7a575083828260ff16815181101515612b6a57fe5b9060200190602002015160200151145b8015612ba457506000828260ff16815181101515612b9457fe5b9060200190602002015160600151115b15612bb25760019250612bc4565b8080600101915050612af8565b600092505b5050919050565b60008060008060009054906101000a900460ff16151515612beb57600080fd5b600060019054906101000a900473ffffffffffffffffffffffffffffffffffffffff1673ffffffffffffffffffffffffffffffffffffffff163373ffffffffffffffffffffffffffffffffffffffff1614151515612cd7576040517f08c379a00000000000000000000000000000000000000000000000000000000081526004018080602001828103825260288152602001807f4f6e6c792073746f7265206f776e65722063616e2063616c6c2074686973206681526020017f756e6374696f6e2e00000000000000000000000000000000000000000000000081525060400191505060405180910390fd5b600086111515612d4f576040517f08c379a00000000000000000000000000000000000000000000000000000000081526004018080602001828103825260208152602001807f50726f64756374436f6465206d757374206265206772656174207468616e203081525060200191505060405180910390fd5b600085111515612dc7576040517f08c379a000000000000000000000000000000000000000000000000000000000815260040180806020018281038252601a8152602001807f5072696365206d757374206265206772656174207468616e203000000000000081525060200191505060405180910390fd5b600084111515612e3f576040517f08c379a000000000000000000000000000000000000000000000000000000000815260040180806020018281038252601d8152602001807f5175616e74697479206d757374206265206772656174207468616e203000000081525060200191505060405180910390fd5b600660003373ffffffffffffffffffffffffffffffffffffffff1673ffffffffffffffffffffffffffffffffffffffff1681526020019081526020016000209150600090505b8180549050811015612f35578181815481101515612e9f57fe5b9060005260206000209060040201600101548614151515612f28576040517f08c379a000000000000000000000000000000000000000000000000000000000815260040180806020018281038252601c8152602001807f50726f6475637420636f646520616c726561647920657869737473210000000081525060200191505060405180910390fd5b8080600101915050612e85565b816080604051908101604052803373ffffffffffffffffffffffffffffffffffffffff168152602001888152602001878152602001868152509080600181540180825580915050906001820390600052602060002090600402016000909192909190915060008201518160000160006101000a81548173ffffffffffffffffffffffffffffffffffffffff021916908373ffffffffffffffffffffffffffffffffffffffff1602179055506020820151816001015560408201518160020155606082015181600301555050506001925050509392505050565b60008060019054906101000a900473ffffffffffffffffffffffffffffffffffffffff1673ffffffffffffffffffffffffffffffffffffffff163373ffffffffffffffffffffffffffffffffffffffff161415156130fa576040517f08c379a00000000000000000000000000000000000000000000000000000000081526004018080602001828103825260288152602001807f4f6e6c792073746f72652061646d696e2063616e2063616c6c2074686973206681526020017f756e6374696f6e2e00000000000000000000000000000000000000000000000081525060400191505060405180910390fd5b6000809054906101000a900460ff1615151561311557600080fd5b8473ffffffffffffffffffffffffffffffffffffffff163373ffffffffffffffffffffffffffffffffffffffff16141515156131df576040517f08c379a00000000000000000000000000000000000000000000000000000000081526004018080602001828103825260238152602001807f53746f72652061646d696e2063616e277420626520612073746f7265206f776e81526020017f657221000000000000000000000000000000000000000000000000000000000081525060400191505060405180910390fd5b8473ffffffffffffffffffffffffffffffffffffffff16600560008773ffffffffffffffffffffffffffffffffffffffff1673ffffffffffffffffffffffffffffffffffffffff16815260200190815260200160002060000160009054906101000a900473ffffffffffffffffffffffffffffffffffffffff1673ffffffffffffffffffffffffffffffffffffffff161415156132e15784600480805480919060010161328c9190613c61565b81548110151561329857fe5b9060005260206000200160006101000a81548173ffffffffffffffffffffffffffffffffffffffff021916908373ffffffffffffffffffffffffffffffffffffffff1602179055505b6080604051908101604052808673ffffffffffffffffffffffffffffffffffffffff16815260200185815260200184815260200183815250600560008773ffffffffffffffffffffffffffffffffffffffff1673ffffffffffffffffffffffffffffffffffffffff16815260200190815260200160002060008201518160000160006101000a81548173ffffffffffffffffffffffffffffffffffffffff021916908373ffffffffffffffffffffffffffffffffffffffff16021790555060208201518160010190805190602001906133bb929190613be1565b5060408201518160020190805190602001906133d8929190613be1565b5060608201518160030190805190602001906133f5929190613be1565b50905050849050949350505050565b60608060606000600660003373ffffffffffffffffffffffffffffffffffffffff1673ffffffffffffffffffffffffffffffffffffffff168152602001908152602001600020805480602002602001604051908101604052809291908181526020016000905b828210156135115783829060005260206000209060040201608060405190810160405290816000820160009054906101000a900473ffffffffffffffffffffffffffffffffffffffff1673ffffffffffffffffffffffffffffffffffffffff1673ffffffffffffffffffffffffffffffffffffffff16815260200160018201548152602001600282015481526020016003820154815250508152602001906001019061346a565b50505050925082516040519080825280602002602001820160405280156135475781602001602082028038833980820191505090505b509150600090505b825181101561359d57828181518110151561356657fe5b9060200190602002015160200151828281518110151561358257fe5b9060200190602002018181525050808060010191505061354f565b81935050505090565b60006060600080600760003373ffffffffffffffffffffffffffffffffffffffff1673ffffffffffffffffffffffffffffffffffffffff168152602001908152602001600020805480602002602001604051908101604052809291908181526020016000905b828210156138fa578382906000526020600020906009020161012060405190810160405290816000820154815260200160018201548152602001600282015481526020016003820160009054906101000a900473ffffffffffffffffffffffffffffffffffffffff1673ffffffffffffffffffffffffffffffffffffffff1673ffffffffffffffffffffffffffffffffffffffff1681526020016004820160009054906101000a900473ffffffffffffffffffffffffffffffffffffffff1673ffffffffffffffffffffffffffffffffffffffff1673ffffffffffffffffffffffffffffffffffffffff16815260200160058201548152602001600682018054600181600116156101000203166002900480601f01602080910402602001604051908101604052809291908181526020018280546001816001161561010002031660029004801561379e5780601f106137735761010080835404028352916020019161379e565b820191906000526020600020905b81548152906001019060200180831161378157829003601f168201915b50505050508152602001600782018054600181600116156101000203166002900480601f0160208091040260200160405190810160405280929190818152602001828054600181600116156101000203166002900480156138405780601f1061381557610100808354040283529160200191613840565b820191906000526020600020905b81548152906001019060200180831161382357829003601f168201915b50505050508152602001600882018054600181600116156101000203166002900480601f0160208091040260200160405190810160405280929190818152602001828054600181600116156101000203166002900480156138e25780601f106138b7576101008083540402835291602001916138e2565b820191906000526020600020905b8154815290600101906020018083116138c557829003601f168201915b5050505050815250508152602001906001019061360c565b50505050925060009150600090505b825181101561395c57828181518110151561392057fe5b9060200190602002015160400151838281518110151561393c57fe5b906020019060200201516020015102820191508080600101915050613909565b81935050505090565b60008060008060009054906101000a900460ff1615151561398557600080fd5b6000841115156139fd576040517f08c379a000000000000000000000000000000000000000000000000000000000815260040180806020018281038252601a8152602001807f5072696365206d757374206265206772656174207468616e203000000000000081525060200191505060405180910390fd5b600660003373ffffffffffffffffffffffffffffffffffffffff1673ffffffffffffffffffffffffffffffffffffffff1681526020019081526020016000209150600090505b8180549050811015613ab0578181815481101515613a5d57fe5b906000526020600020906004020160010154851415613aa357838282815481101515613a8557fe5b90600052602060002090600402016002018190555060019250613b27565b8080600101915050613a43565b60001515613b26576040517f08c379a00000000000000000000000000000000000000000000000000000000081526004018080602001828103825260158152602001807f4e6f20737563682070726f6475637420666f756e64000000000000000000000081525060200191505060405180910390fd5b5b505092915050565b828054600181600116156101000203166002900490600052602060002090601f016020900481019282601f10613b7057805160ff1916838001178555613b9e565b82800160010185558215613b9e579182015b82811115613b9d578251825591602001919060010190613b82565b5b509050613bab9190613c8d565b5090565b815481835581811115613bdc57600402816004028360005260206000209182019101613bdb9190613cb2565b5b505050565b828054600181600116156101000203166002900490600052602060002090601f016020900481019282601f10613c2257805160ff1916838001178555613c50565b82800160010185558215613c50579182015b82811115613c4f578251825591602001919060010190613c34565b5b509050613c5d9190613c8d565b5090565b815481835581811115613c8857818360005260206000209182019101613c879190613c8d565b5b505050565b613caf91905b80821115613cab576000816000905550600101613c93565b5090565b90565b613d0d91905b80821115613d0957600080820160006101000a81549073ffffffffffffffffffffffffffffffffffffffff021916905560018201600090556002820160009055600382016000905550600401613cb8565b5090565b905600a165627a7a72305820cefb29f0afc9780d3875bc94d3e98ec1a824cb4f0105be6c516386c82a4d1d240029",
  "source": "pragma solidity ^\"0.4.24\";\r\n\r\nimport \"./OnlineMarketPlaceLibrary.sol\";\r\nimport \"./OnlineMarketPlaceInterface.sol\";\r\nimport \"./StoreAdmin.sol\";\r\n\r\n/* Online Market Place Contract */\r\ncontract OnlineMarketPlace is OnlineMarketPlaceInterface, StoreAdmin {\r\n\r\n    /* Create a struct to store user details */\r\n    struct user {\r\n        address userAddress;\r\n        string firstName;\r\n        string lastName;\r\n        string emailAddress;\r\n    }\r\n\r\n    /* Create a struct to store product details */\r\n    struct product {\r\n        address storeOwnerAddress;\r\n        uint productCode;\r\n        uint price;\r\n        uint quantity;\r\n    }\r\n    \r\n    /* Create a struct to store transaction details */\r\n    struct transaction{\r\n        uint productCode;\r\n        uint price;\r\n        uint quantity;\r\n        address buyerAddress;\r\n        address sellerAddress;\r\n        uint orderedDate;\r\n        string firstName;\r\n        string lastName;\r\n        string deliveryAddress;\r\n    } \r\n\r\n    /* List to hold store owner addresses */\r\n    address[] storeOwnerAddresses;\r\n\r\n    /* Create a mapping that maps the store owners address to an store owner user object */\r\n    mapping (address => user) public storeOwners;\r\n\r\n    /* Create a mapping that maps the store owners address to list of products */\r\n    mapping (address => product[]) public storeOwnerProducts;\r\n    \r\n    /* Create a mapping that maps the store owner address to list of all store transaction */\r\n    mapping (address => transaction[]) public storeTransactions;\r\n    \r\n    /* Get store balance. Note this function can be enhanced easily to withdraw funds from the store */\r\n    function getStoreBalance() public view returns(uint) { \r\n        \r\n        // Get the list of products for this store owner\r\n        transaction[] memory allStoreTransactions = storeTransactions[msg.sender];\r\n\r\n        uint storeBalance = 0;\r\n        for (uint i=0; i < allStoreTransactions.length; i++) {\r\n            // Limitation - Currently I haven't handed the overpay part i.e. in case the client has paid more \r\n            // then this store balance will not reflect the additional paid amount.\r\n            storeBalance = storeBalance + (allStoreTransactions[i].price * allStoreTransactions[i].quantity);\r\n        }\r\n  \r\n        return storeBalance;\r\n    }\r\n    \r\n    /* Buy the product */\r\n    function buyProduct(address _storeOwnerAddress, uint _productCode, uint _quantity, string _firstName, string _lastName, \r\n            string _derliveryAddress) payable public stopInEmergency() returns (bool) {\r\n       \r\n        // Get the list of products from the store\r\n        product[] storage listOfProducts = storeOwnerProducts[_storeOwnerAddress];\r\n        \r\n        // Iterate through the list of products to check if the product code already exists\r\n        for (uint i=0; i < listOfProducts.length; i++) {\r\n            \r\n            if(_productCode == listOfProducts[i].productCode) {\r\n                // Check to ensure buyer's address is not same as seller's address\r\n                require(listOfProducts[i].storeOwnerAddress != msg.sender, \"Seller is not allow to buy from it's own store :)\");\r\n                \r\n                // Check to see if the seller has required quantity to sell\r\n                require(listOfProducts[i].quantity >= _quantity, \"Sorry the product is currently out of stock. Please try again later.\");\r\n                \r\n                // Check to ensure that buyer has paid enough\r\n                require(msg.value >= OnlineMarketPlaceLibrary.calculateAmount(listOfProducts[i].price, _quantity), \"Amount paid is not enough for this transaction to complete successfully. Please check the amount paid and retry.\");\r\n\r\n                // Transfer the funds from the buyer to seller\r\n                listOfProducts[i].storeOwnerAddress.transfer(msg.value);\r\n\r\n                // Reduce the quantity\r\n                listOfProducts[i].quantity = listOfProducts[i].quantity - _quantity;\r\n                \r\n                // Create a new transaction and store it in the mapping of all store transactions\r\n                storeTransactions[_storeOwnerAddress].push(transaction(_productCode, listOfProducts[i].price, \r\n                        _quantity, msg.sender, listOfProducts[i].storeOwnerAddress, block.timestamp, _firstName, _lastName, _derliveryAddress));\r\n                        \r\n                return true;\r\n            }\r\n        }\r\n        \r\n        return false;\r\n    }\r\n    \r\n    /* Change the product price */\r\n    function changeProductPrice(uint _productCode, uint _newPrice) public stopInEmergency() returns (bool) {\r\n        // Check to ensure that the price is greater than 0\r\n        require (_newPrice > 0, \"Price must be great than 0\");\r\n\r\n        // Get the list of products for this store owner\r\n        product[] storage listOfProducts = storeOwnerProducts[msg.sender];\r\n\r\n        // Iterate through the list of products to check if the product code already exists\r\n        for (uint i=0; i < listOfProducts.length; i++) {\r\n            if(_productCode == listOfProducts[i].productCode) {\r\n                listOfProducts[i].price = _newPrice;\r\n                return true;\r\n            }\r\n        }\r\n        \r\n        require(false, \"No such product found\");\r\n    }\r\n\r\n    /* Add a new product to the store owner */\r\n    function addProduct(uint _productCode, uint _price, uint _quantity) public stopInEmergency() returns (bool) {\r\n        \r\n        // Check to ensure store admin can not any products\r\n        require( msg.sender != storeAdminAddress,  \"Only store owner can call this function.\" );\r\n\r\n        // Check to ensure that the product code is greater than 0\r\n        require (_productCode > 0, \"ProductCode must be great than 0\");\r\n\r\n        // Check to ensure that the price is greater than 0\r\n        require (_price > 0, \"Price must be great than 0\");\r\n\r\n        // Check to ensure that the quantity is greater than 0\r\n        require (_quantity > 0, \"Quantity must be great than 0\");\r\n\r\n        // Get the list of products for this store owner\r\n        product[] storage listOfProducts = storeOwnerProducts[msg.sender];\r\n\r\n        // Iterate through the list of products to check if the product code already exists\r\n        for (uint i=0; i < listOfProducts.length; i++) {\r\n            require (_productCode != listOfProducts[i].productCode, \"Product code already exists!\");\r\n        }\r\n        \r\n        // Add a new product to the list\r\n        listOfProducts.push(product(msg.sender, _productCode, _price, _quantity));\r\n\r\n        return true;\r\n    }\r\n\r\n    /* Remove existing product from the store owner */\r\n    function removeProduct(uint _productCode) public stopInEmergency() returns (bool) {\r\n\r\n        // Get the list of products for this store owner\r\n        product[] storage listOfProducts = storeOwnerProducts[msg.sender];\r\n\r\n        // Iterate through the list of products to check if the product code already exists\r\n        for (uint i=0; i < listOfProducts.length; i++) {\r\n            if(_productCode == listOfProducts[i].productCode) {\r\n                // Assign the last element of the array to this location\r\n                listOfProducts[i] = listOfProducts[listOfProducts.length-1];\r\n                listOfProducts.length--;\r\n                return true;\r\n            }\r\n        }\r\n        \r\n        require(false, \"No such product found\");\r\n    }\r\n\r\n    /* Get all the product for the store owner */\r\n    function getAllProductCodes() public view returns(uint[]) { \r\n        // Get the list of products for this store owner\r\n        product[] memory listOfProducts = storeOwnerProducts[msg.sender];\r\n\r\n        // Create a list of product codes. Note here the size of the list is equal to the the size of products list\r\n        uint[] memory productCodes = new uint[] (listOfProducts.length);\r\n\r\n        for (uint i=0; i < listOfProducts.length; i++) {\r\n            productCodes[i] = listOfProducts[i].productCode;\r\n        }\r\n  \r\n        return productCodes;\r\n    }\r\n\r\n    /* Check the availability of the product for the store owner */\r\n    function getProductDetails(uint _productCode) public view returns(address, uint, uint, uint) { \r\n        // Check to see if this product exists\r\n        require (checkProductAvailability(_productCode), \"No such product found\");\r\n        \r\n        product[] memory listOfProducts = storeOwnerProducts[msg.sender];\r\n\r\n        for (uint i=0; i < listOfProducts.length; i++) {\r\n            if ((listOfProducts[i].storeOwnerAddress == msg.sender) && listOfProducts[i].productCode == _productCode) {\r\n                return (listOfProducts[i].storeOwnerAddress, listOfProducts[i].productCode,listOfProducts[i].price, listOfProducts[i].quantity) ;\r\n            }\r\n        }\r\n    }\r\n\r\n    /* Check the availability of the product for the store owner */\r\n    function checkProductAvailability(uint _productCode) public view returns(bool) { \r\n        product[] memory listOfProducts = storeOwnerProducts[msg.sender];\r\n\r\n        for (uint8 i=0; i < listOfProducts.length; i++) {\r\n            if ((listOfProducts[i].storeOwnerAddress == msg.sender) && (listOfProducts[i].productCode == _productCode) \r\n                    && listOfProducts[i].quantity > 0) {\r\n                return true;\r\n            }\r\n        }\r\n  \r\n        return false;\r\n    }\r\n\r\n    /* This function will allow store admin to new store owners */\r\n    function addStoreOwner(address _storeOwnerAddress, string _firstName, string _lastName, string _emailAddress) public isStoreAdmin() stopInEmergency() returns (address){ \r\n        \r\n        // Check to ensure store admin is not store owner\r\n        require(msg.sender != _storeOwnerAddress, \"Store admin can't be a store owner!\");\r\n        \r\n        // If the store owner already exists then don't add it to store owner addresses again\r\n        if (storeOwners[_storeOwnerAddress].userAddress != _storeOwnerAddress) {\r\n            storeOwnerAddresses[storeOwnerAddresses.length++] = _storeOwnerAddress;   \r\n        }\r\n        \r\n        storeOwners[_storeOwnerAddress] = user(_storeOwnerAddress, _firstName, _lastName, _emailAddress);\r\n        return _storeOwnerAddress;\r\n    }\r\n\r\n    /* Get all store owners addresses*/\r\n    function getAllStoreOwners() public view returns(address[]) {\r\n        return storeOwnerAddresses;\r\n    }\r\n\r\n    /* Get store owner details */\r\n    function getStoreOwnerDetails(address _storeOwnerAddress) public view returns(address, string, string, string) {\r\n        return (storeOwners[_storeOwnerAddress].userAddress, storeOwners[_storeOwnerAddress].firstName, \r\n                storeOwners[_storeOwnerAddress].lastName, storeOwners[_storeOwnerAddress].emailAddress);\r\n    }\r\n}",
  "sourcePath": "/mnt/d/online-market-project/contracts/OnlineMarketPlace.sol",
  "compiler": {
    "name": "solc",
    "version": "0.4.24+commit.e67f0147.Emscripten.clang"
  },
  "schemaVersion": "2.0.1",
  "updatedAt": "2018-08-28T10:57:59.372Z"
}