{
  "contractName": "OnlineMarketPlaceLibrary",
  "abi": [
    {
      "constant": true,
      "inputs": [
        {
          "name": "price",
          "type": "uint256"
        },
        {
          "name": "quantity",
          "type": "uint256"
        }
      ],
      "name": "calculateAmount",
      "outputs": [
        {
          "name": "",
          "type": "uint256"
        }
      ],
      "payable": false,
      "stateMutability": "pure",
      "type": "function"
    },
    {
      "constant": true,
      "inputs": [
        {
          "name": "x",
          "type": "address"
        }
      ],
      "name": "toString",
      "outputs": [
        {
          "name": "",
          "type": "string"
        }
      ],
      "payable": false,
      "stateMutability": "pure",
      "type": "function"
    }
  ],
  "bytecode": "0x61027a610030600b82828239805160001a6073146000811461002057610022565bfe5b5030600052607381538281f3007300000000000000000000000000000000000000003014608060405260043610610063576000357c0100000000000000000000000000000000000000000000000000000000900463ffffffff16806356ca623e14610068578063cbcd558214610117575b600080fd5b61009c600480360381019080803573ffffffffffffffffffffffffffffffffffffffff169060200190929190505050610155565b6040518080602001828103825283818151815260200191508051906020019080838360005b838110156100dc5780820151818401526020810190506100c1565b50505050905090810190601f1680156101095780820380516001836020036101000a031916815260200191505b509250505060405180910390f35b61013f6004803603810190808035906020019092919080359060200190929190505050610241565b6040518082815260200191505060405180910390f35b606080600060146040519080825280601f01601f19166020018201604052801561018e5781602001602082028038833980820191505090505b509150600090505b6014811015610237578060130360080260020a8473ffffffffffffffffffffffffffffffffffffffff168115156101c957fe5b047f01000000000000000000000000000000000000000000000000000000000000000282828151811015156101fa57fe5b9060200101907effffffffffffffffffffffffffffffffffffffffffffffffffffffffffffff1916908160001a9053508080600101915050610196565b8192505050919050565b60008183029050929150505600a165627a7a723058202d7c098c35ac85945e25df9cdcf73d6712873745b1ffdc3a306c1e09e88a47c70029",
  "source": "pragma solidity ^\"0.4.24\";\r\n\r\n/* Online Market Place Library */\r\nlibrary OnlineMarketPlaceLibrary {\r\n\r\n    /* Function to calcuate the amount reqired for the buyer */\r\n    function calculateAmount(uint price, uint quantity) public pure returns (uint) {\r\n        return price * quantity;\r\n    }\r\n\r\n    /* Function to convert address to string type */    \r\n    function toString(address x) public pure returns (string) {\r\n        bytes memory b = new bytes(20);\r\n        \r\n        for (uint i = 0; i < 20; i++) {\r\n            b[i] = byte(uint8(uint(x) / (2**(8*(19 - i)))));\r\n        }\r\n\r\n        return string(b);\r\n    }\r\n}",
  "sourcePath": "/mnt/d/online-market-project/contracts/OnlineMarketPlaceLibrary.sol",
  "compiler": {
    "name": "solc",
    "version": "0.4.24+commit.e67f0147.Emscripten.clang"
  },
  "schemaVersion": "2.0.1",
  "updatedAt": "2018-08-27T18:53:43.969Z"
}