{
  "contractName": "OnlineMarketPlace",
  "abi": [
    {
      "constant": true,
      "inputs": [
        {
          "name": "",
          "type": "address"
        }
      ],
      "name": "storeOwners",
      "outputs": [
        {
          "name": "userAddress",
          "type": "address"
        },
        {
          "name": "firstName",
          "type": "string"
        },
        {
          "name": "lastName",
          "type": "string"
        },
        {
          "name": "emailAddress",
          "type": "string"
        }
      ],
      "payable": false,
      "stateMutability": "view",
      "type": "function"
    },
    {
      "constant": true,
      "inputs": [],
      "name": "getStoreAdminDetails",
      "outputs": [
        {
          "name": "",
          "type": "address"
        },
        {
          "name": "",
          "type": "string"
        },
        {
          "name": "",
          "type": "string"
        },
        {
          "name": "",
          "type": "string"
        }
      ],
      "payable": false,
      "stateMutability": "view",
      "type": "function"
    },
    {
      "constant": true,
      "inputs": [
        {
          "name": "",
          "type": "address"
        },
        {
          "name": "",
          "type": "uint256"
        }
      ],
      "name": "storeTransactions",
      "outputs": [
        {
          "name": "productCode",
          "type": "uint256"
        },
        {
          "name": "price",
          "type": "uint256"
        },
        {
          "name": "quantity",
          "type": "uint256"
        },
        {
          "name": "buyerAddress",
          "type": "address"
        },
        {
          "name": "sellerAddress",
          "type": "address"
        },
        {
          "name": "orderedDate",
          "type": "uint256"
        },
        {
          "name": "firstName",
          "type": "string"
        },
        {
          "name": "lastName",
          "type": "string"
        },
        {
          "name": "deliveryAddress",
          "type": "string"
        }
      ],
      "payable": false,
      "stateMutability": "view",
      "type": "function"
    },
    {
      "constant": true,
      "inputs": [
        {
          "name": "",
          "type": "address"
        },
        {
          "name": "",
          "type": "uint256"
        }
      ],
      "name": "storeOwnerProducts",
      "outputs": [
        {
          "name": "storeOwnerAddress",
          "type": "address"
        },
        {
          "name": "productCode",
          "type": "uint256"
        },
        {
          "name": "price",
          "type": "uint256"
        },
        {
          "name": "quantity",
          "type": "uint256"
        }
      ],
      "payable": false,
      "stateMutability": "view",
      "type": "function"
    },
    {
      "constant": false,
      "inputs": [
        {
          "name": "_firstName",
          "type": "string"
        },
        {
          "name": "_lastName",
          "type": "string"
        },
        {
          "name": "_emailAddress",
          "type": "string"
        }
      ],
      "name": "registerStoreAdminDetails",
      "outputs": [
        {
          "name": "",
          "type": "bool"
        }
      ],
      "payable": false,
      "stateMutability": "nonpayable",
      "type": "function"
    },
    {
      "anonymous": false,
      "inputs": [
        {
          "indexed": true,
          "name": "storeAdminAddress",
          "type": "address"
        },
        {
          "indexed": false,
          "name": "firstName",
          "type": "string"
        },
        {
          "indexed": false,
          "name": "lastName",
          "type": "string"
        },
        {
          "indexed": false,
          "name": "emailAddress",
          "type": "string"
        }
      ],
      "name": "storeOwnerRegistrationEvent",
      "type": "event"
    },
    {
      "constant": true,
      "inputs": [],
      "name": "getStoreBalance",
      "outputs": [
        {
          "name": "",
          "type": "uint256"
        }
      ],
      "payable": false,
      "stateMutability": "view",
      "type": "function"
    },
    {
      "constant": false,
      "inputs": [
        {
          "name": "_storeOwnerAddress",
          "type": "address"
        },
        {
          "name": "_productCode",
          "type": "uint256"
        },
        {
          "name": "_quantity",
          "type": "uint256"
        },
        {
          "name": "_firstName",
          "type": "string"
        },
        {
          "name": "_lastName",
          "type": "string"
        },
        {
          "name": "_derliveryAddress",
          "type": "string"
        }
      ],
      "name": "buyProduct",
      "outputs": [
        {
          "name": "",
          "type": "bool"
        }
      ],
      "payable": true,
      "stateMutability": "payable",
      "type": "function"
    },
    {
      "constant": false,
      "inputs": [
        {
          "name": "_productCode",
          "type": "uint256"
        },
        {
          "name": "_newPrice",
          "type": "uint256"
        }
      ],
      "name": "changeProductPrice",
      "outputs": [
        {
          "name": "",
          "type": "bool"
        }
      ],
      "payable": false,
      "stateMutability": "nonpayable",
      "type": "function"
    },
    {
      "constant": false,
      "inputs": [
        {
          "name": "_productCode",
          "type": "uint256"
        },
        {
          "name": "_price",
          "type": "uint256"
        },
        {
          "name": "_quantity",
          "type": "uint256"
        }
      ],
      "name": "addProduct",
      "outputs": [
        {
          "name": "",
          "type": "bool"
        }
      ],
      "payable": false,
      "stateMutability": "nonpayable",
      "type": "function"
    },
    {
      "constant": false,
      "inputs": [
        {
          "name": "_productCode",
          "type": "uint256"
        }
      ],
      "name": "removeProduct",
      "outputs": [
        {
          "name": "",
          "type": "bool"
        }
      ],
      "payable": false,
      "stateMutability": "nonpayable",
      "type": "function"
    },
    {
      "constant": true,
      "inputs": [],
      "name": "getAllProductCodes",
      "outputs": [
        {
          "name": "",
          "type": "uint256[]"
        }
      ],
      "payable": false,
      "stateMutability": "view",
      "type": "function"
    },
    {
      "constant": true,
      "inputs": [
        {
          "name": "_productCode",
          "type": "uint256"
        }
      ],
      "name": "getProductDetails",
      "outputs": [
        {
          "name": "",
          "type": "address"
        },
        {
          "name": "",
          "type": "uint256"
        },
        {
          "name": "",
          "type": "uint256"
        },
        {
          "name": "",
          "type": "uint256"
        }
      ],
      "payable": false,
      "stateMutability": "view",
      "type": "function"
    },
    {
      "constant": true,
      "inputs": [
        {
          "name": "_productCode",
          "type": "uint256"
        }
      ],
      "name": "checkProductAvailability",
      "outputs": [
        {
          "name": "",
          "type": "bool"
        }
      ],
      "payable": false,
      "stateMutability": "view",
      "type": "function"
    },
    {
      "constant": false,
      "inputs": [
        {
          "name": "_storeOwnerAddress",
          "type": "address"
        },
        {
          "name": "_firstName",
          "type": "string"
        },
        {
          "name": "_lastName",
          "type": "string"
        },
        {
          "name": "_emailAddress",
          "type": "string"
        }
      ],
      "name": "addStoreOwner",
      "outputs": [
        {
          "name": "",
          "type": "address"
        }
      ],
      "payable": false,
      "stateMutability": "nonpayable",
      "type": "function"
    },
    {
      "constant": true,
      "inputs": [],
      "name": "getAllStoreOwners",
      "outputs": [
        {
          "name": "",
          "type": "address[]"
        }
      ],
      "payable": false,
      "stateMutability": "view",
      "type": "function"
    },
    {
      "constant": true,
      "inputs": [
        {
          "name": "_storeOwnerAddress",
          "type": "address"
        }
      ],
      "name": "getStoreOwnerDetails",
      "outputs": [
        {
          "name": "",
          "type": "address"
        },
        {
          "name": "",
          "type": "string"
        },
        {
          "name": "",
          "type": "string"
        },
        {
          "name": "",
          "type": "string"
        }
      ],
      "payable": false,
      "stateMutability": "view",
      "type": "function"
    }
  ],
  "bytecode": "0x6080604052336000806101000a81548173ffffffffffffffffffffffffffffffffffffffff021916908373ffffffffffffffffffffffffffffffffffffffff1602179055506138ac806100536000396000f3006080604052600436106100e6576000357c0100000000000000000000000000000000000000000000000000000000900463ffffffff168063057cc2a1146100eb5780630d904920146102b257806330e8459d1461031e5780634d7d82b7146104b95780635ee95cae1461068057806361917cbc146106c55780636748ff17146107f95780636813b53b14610a19578063832725d714610a9b57806393eb5d5414610b3d5780639937b38f14610b82578063e217533914610bdb578063e95dc1f714610ce8578063eefc4abe14610e3d578063f05fae6814610ea9578063f1d36cbc14610ed4575b600080fd5b3480156100f757600080fd5b5061012c600480360381019080803573ffffffffffffffffffffffffffffffffffffffff169060200190929190505050610f23565b604051808573ffffffffffffffffffffffffffffffffffffffff1673ffffffffffffffffffffffffffffffffffffffff168152602001806020018060200180602001848103845287818151815260200191508051906020019080838360005b838110156101a657808201518184015260208101905061018b565b50505050905090810190601f1680156101d35780820380516001836020036101000a031916815260200191505b50848103835286818151815260200191508051906020019080838360005b8381101561020c5780820151818401526020810190506101f1565b50505050905090810190601f1680156102395780820380516001836020036101000a031916815260200191505b50848103825285818151815260200191508051906020019080838360005b83811015610272578082015181840152602081019050610257565b50505050905090810190601f16801561029f5780820380516001836020036101000a031916815260200191505b5097505050505050505060405180910390f35b3480156102be57600080fd5b506102c761113b565b6040518080602001828103825283818151815260200191508051906020019060200280838360005b8381101561030a5780820151818401526020810190506102ef565b505050509050019250505060405180910390f35b34801561032a57600080fd5b506103336111c9565b604051808573ffffffffffffffffffffffffffffffffffffffff1673ffffffffffffffffffffffffffffffffffffffff168152602001806020018060200180602001848103845287818151815260200191508051906020019080838360005b838110156103ad578082015181840152602081019050610392565b50505050905090810190601f1680156103da5780820380516001836020036101000a031916815260200191505b50848103835286818151815260200191508051906020019080838360005b838110156104135780820151818401526020810190506103f8565b50505050905090810190601f1680156104405780820380516001836020036101000a031916815260200191505b50848103825285818151815260200191508051906020019080838360005b8381101561047957808201518184015260208101905061045e565b50505050905090810190601f1680156104a65780820380516001836020036101000a031916815260200191505b5097505050505050505060405180910390f35b3480156104c557600080fd5b506104fa600480360381019080803573ffffffffffffffffffffffffffffffffffffffff1690602001909291905050506113da565b604051808573ffffffffffffffffffffffffffffffffffffffff1673ffffffffffffffffffffffffffffffffffffffff168152602001806020018060200180602001848103845287818151815260200191508051906020019080838360005b83811015610574578082015181840152602081019050610559565b50505050905090810190601f1680156105a15780820380516001836020036101000a031916815260200191505b50848103835286818151815260200191508051906020019080838360005b838110156105da5780820151818401526020810190506105bf565b50505050905090810190601f1680156106075780820380516001836020036101000a031916815260200191505b50848103825285818151815260200191508051906020019080838360005b83811015610640578082015181840152602081019050610625565b50505050905090810190601f16801561066d5780820380516001836020036101000a031916815260200191505b5097505050505050505060405180910390f35b34801561068c57600080fd5b506106ab600480360381019080803590602001909291905050506116ed565b604051808215151515815260200191505060405180910390f35b6107df600480360381019080803573ffffffffffffffffffffffffffffffffffffffff1690602001909291908035906020019092919080359060200190929190803590602001908201803590602001908080601f0160208091040260200160405190810160405280939291908181526020018383808284378201915050505050509192919290803590602001908201803590602001908080601f0160208091040260200160405190810160405280939291908181526020018383808284378201915050505050509192919290803590602001908201803590602001908080601f0160208091040260200160405190810160405280939291908181526020018383808284378201915050505050509192919290505050611869565b604051808215151515815260200191505060405180910390f35b34801561080557600080fd5b50610844600480360381019080803573ffffffffffffffffffffffffffffffffffffffff16906020019092919080359060200190929190505050611fc1565b604051808a81526020018981526020018881526020018773ffffffffffffffffffffffffffffffffffffffff1673ffffffffffffffffffffffffffffffffffffffff1681526020018673ffffffffffffffffffffffffffffffffffffffff1673ffffffffffffffffffffffffffffffffffffffff168152602001858152602001806020018060200180602001848103845287818151815260200191508051906020019080838360005b838110156109085780820151818401526020810190506108ed565b50505050905090810190601f1680156109355780820380516001836020036101000a031916815260200191505b50848103835286818151815260200191508051906020019080838360005b8381101561096e578082015181840152602081019050610953565b50505050905090810190601f16801561099b5780820380516001836020036101000a031916815260200191505b50848103825285818151815260200191508051906020019080838360005b838110156109d45780820151818401526020810190506109b9565b50505050905090810190601f168015610a015780820380516001836020036101000a031916815260200191505b509c5050505050505050505050505060405180910390f35b348015610a2557600080fd5b50610a4460048036038101908080359060200190929190505050612233565b604051808573ffffffffffffffffffffffffffffffffffffffff1673ffffffffffffffffffffffffffffffffffffffff16815260200184815260200183815260200182815260200194505050505060405180910390f35b348015610aa757600080fd5b50610ae6600480360381019080803573ffffffffffffffffffffffffffffffffffffffff169060200190929190803590602001909291905050506124dd565b604051808573ffffffffffffffffffffffffffffffffffffffff1673ffffffffffffffffffffffffffffffffffffffff16815260200184815260200183815260200182815260200194505050505060405180910390f35b348015610b4957600080fd5b50610b6860048036038101908080359060200190929190505050612549565b604051808215151515815260200191505060405180910390f35b348015610b8e57600080fd5b50610bc1600480360381019080803590602001909291908035906020019092919080359060200190929190505050612733565b604051808215151515815260200191505060405180910390f35b348015610be757600080fd5b50610cce600480360381019080803590602001908201803590602001908080601f0160208091040260200160405190810160405280939291908181526020018383808284378201915050505050509192919290803590602001908201803590602001908080601f0160208091040260200160405190810160405280939291908181526020018383808284378201915050505050509192919290803590602001908201803590602001908080601f01602080910402602001604051908101604052809392919081815260200183838082843782019150505050505091929192905050506129f2565b604051808215151515815260200191505060405180910390f35b348015610cf457600080fd5b50610dfb600480360381019080803573ffffffffffffffffffffffffffffffffffffffff169060200190929190803590602001908201803590602001908080601f0160208091040260200160405190810160405280939291908181526020018383808284378201915050505050509192919290803590602001908201803590602001908080601f0160208091040260200160405190810160405280939291908181526020018383808284378201915050505050509192919290803590602001908201803590602001908080601f0160208091040260200160405190810160405280939291908181526020018383808284378201915050505050509192919290505050612d36565b604051808273ffffffffffffffffffffffffffffffffffffffff1673ffffffffffffffffffffffffffffffffffffffff16815260200191505060405180910390f35b348015610e4957600080fd5b50610e52613079565b6040518080602001828103825283818151815260200191508051906020019060200280838360005b83811015610e95578082015181840152602081019050610e7a565b505050509050019250505060405180910390f35b348015610eb557600080fd5b50610ebe61321b565b6040518082815260200191505060405180910390f35b348015610ee057600080fd5b50610f0960048036038101908080359060200190929190803590602001909291905050506135da565b604051808215151515815260200191505060405180910390f35b60056020528060005260406000206000915090508060000160009054906101000a900473ffffffffffffffffffffffffffffffffffffffff1690806001018054600181600116156101000203166002900480601f016020809104026020016040519081016040528092919081815260200182805460018160011615610100020316600290048015610ff55780601f10610fca57610100808354040283529160200191610ff5565b820191906000526020600020905b815481529060010190602001808311610fd857829003601f168201915b505050505090806002018054600181600116156101000203166002900480601f0160208091040260200160405190810160405280929190818152602001828054600181600116156101000203166002900480156110935780601f1061106857610100808354040283529160200191611093565b820191906000526020600020905b81548152906001019060200180831161107657829003601f168201915b505050505090806003018054600181600116156101000203166002900480601f0160208091040260200160405190810160405280929190818152602001828054600181600116156101000203166002900480156111315780601f1061110657610100808354040283529160200191611131565b820191906000526020600020905b81548152906001019060200180831161111457829003601f168201915b5050505050905084565b606060048054806020026020016040519081016040528092919081815260200182805480156111bf57602002820191906000526020600020905b8160009054906101000a900473ffffffffffffffffffffffffffffffffffffffff1673ffffffffffffffffffffffffffffffffffffffff1681526020019060010190808311611175575b5050505050905090565b600060608060606000809054906101000a900473ffffffffffffffffffffffffffffffffffffffff16600160026003828054600181600116156101000203166002900480601f01602080910402602001604051908101604052809291908181526020018280546001816001161561010002031660029004801561128d5780601f106112625761010080835404028352916020019161128d565b820191906000526020600020905b81548152906001019060200180831161127057829003601f168201915b50505050509250818054600181600116156101000203166002900480601f0160208091040260200160405190810160405280929190818152602001828054600181600116156101000203166002900480156113295780601f106112fe57610100808354040283529160200191611329565b820191906000526020600020905b81548152906001019060200180831161130c57829003601f168201915b50505050509150808054600181600116156101000203166002900480601f0160208091040260200160405190810160405280929190818152602001828054600181600116156101000203166002900480156113c55780601f1061139a576101008083540402835291602001916113c5565b820191906000526020600020905b8154815290600101906020018083116113a857829003601f168201915b50505050509050935093509350935090919293565b60006060806060600560008673ffffffffffffffffffffffffffffffffffffffff1673ffffffffffffffffffffffffffffffffffffffff16815260200190815260200160002060000160009054906101000a900473ffffffffffffffffffffffffffffffffffffffff16600560008773ffffffffffffffffffffffffffffffffffffffff1673ffffffffffffffffffffffffffffffffffffffff168152602001908152602001600020600101600560008873ffffffffffffffffffffffffffffffffffffffff1673ffffffffffffffffffffffffffffffffffffffff168152602001908152602001600020600201600560008973ffffffffffffffffffffffffffffffffffffffff1673ffffffffffffffffffffffffffffffffffffffff168152602001908152602001600020600301828054600181600116156101000203166002900480601f01602080910402602001604051908101604052809291908181526020018280546001816001161561010002031660029004801561159f5780601f106115745761010080835404028352916020019161159f565b820191906000526020600020905b81548152906001019060200180831161158257829003601f168201915b50505050509250818054600181600116156101000203166002900480601f01602080910402602001604051908101604052809291908181526020018280546001816001161561010002031660029004801561163b5780601f106116105761010080835404028352916020019161163b565b820191906000526020600020905b81548152906001019060200180831161161e57829003601f168201915b50505050509150808054600181600116156101000203166002900480601f0160208091040260200160405190810160405280929190818152602001828054600181600116156101000203166002900480156116d75780601f106116ac576101008083540402835291602001916116d7565b820191906000526020600020905b8154815290600101906020018083116116ba57829003601f168201915b5050505050905093509350935093509193509193565b6000806000600660003373ffffffffffffffffffffffffffffffffffffffff1673ffffffffffffffffffffffffffffffffffffffff1681526020019081526020016000209150600090505b818054905081101561185d57818181548110151561175257fe5b9060005260206000209060040201600101548414156118505781600183805490500381548110151561178057fe5b9060005260206000209060040201828281548110151561179c57fe5b90600052602060002090600402016000820160009054906101000a900473ffffffffffffffffffffffffffffffffffffffff168160000160006101000a81548173ffffffffffffffffffffffffffffffffffffffff021916908373ffffffffffffffffffffffffffffffffffffffff16021790555060018201548160010155600282015481600201556003820154816003015590505081805480919060019003611846919061369f565b5060019250611862565b8080600101915050611738565b600092505b5050919050565b6000806000600660008a73ffffffffffffffffffffffffffffffffffffffff1673ffffffffffffffffffffffffffffffffffffffff1681526020019081526020016000209150600090505b8180549050811015611fb05781818154811015156118ce57fe5b906000526020600020906004020160010154881415611fa3573373ffffffffffffffffffffffffffffffffffffffff16828281548110151561190c57fe5b906000526020600020906004020160000160009054906101000a900473ffffffffffffffffffffffffffffffffffffffff1673ffffffffffffffffffffffffffffffffffffffff16141515156119f0576040517f08c379a00000000000000000000000000000000000000000000000000000000081526004018080602001828103825260318152602001807f53656c6c6572206973206e6f7420616c6c6f7720746f206275792066726f6d2081526020017f69742773206f776e2073746f7265203a2900000000000000000000000000000081525060400191505060405180910390fd5b8682828154811015156119ff57fe5b90600052602060002090600402016003015410151515611ad3576040517f08c379a00000000000000000000000000000000000000000000000000000000081526004018080602001828103825260448152602001807f536f727279207468652070726f647563742069732063757272656e746c79206f81526020017f7574206f662073746f636b2e20506c656173652074727920616761696e206c6181526020017f7465722e0000000000000000000000000000000000000000000000000000000081525060600191505060405180910390fd5b73__OnlineMarketPlaceLibrary______________63cbcd55828383815481101515611afb57fe5b906000526020600020906004020160020154896040518363ffffffff167c0100000000000000000000000000000000000000000000000000000000028152600401808381526020018281526020019250505060206040518083038186803b158015611b6557600080fd5b505af4158015611b79573d6000803e3d6000fd5b505050506040513d6020811015611b8f57600080fd5b81019080805190602001909291905050503410151515611c89576040517f08c379a00000000000000000000000000000000000000000000000000000000081526004018080602001828103825260708152602001807f416d6f756e742070616964206973206e6f7420656e6f75676820666f7220746881526020017f6973207472616e73616374696f6e20746f20636f6d706c65746520737563636581526020017f737366756c6c792e20506c6561736520636865636b2074686520616d6f756e7481526020017f207061696420616e642072657472792e0000000000000000000000000000000081525060800191505060405180910390fd5b8181815481101515611c9757fe5b906000526020600020906004020160000160009054906101000a900473ffffffffffffffffffffffffffffffffffffffff1673ffffffffffffffffffffffffffffffffffffffff166108fc349081150290604051600060405180830381858888f19350505050158015611d0e573d6000803e3d6000fd5b50868282815481101515611d1e57fe5b906000526020600020906004020160030154038282815481101515611d3f57fe5b906000526020600020906004020160030181905550600760008a73ffffffffffffffffffffffffffffffffffffffff1673ffffffffffffffffffffffffffffffffffffffff168152602001908152602001600020610120604051908101604052808a81526020018484815481101515611db457fe5b90600052602060002090600402016002015481526020018981526020013373ffffffffffffffffffffffffffffffffffffffff1681526020018484815481101515611dfb57fe5b906000526020600020906004020160000160009054906101000a900473ffffffffffffffffffffffffffffffffffffffff1673ffffffffffffffffffffffffffffffffffffffff168152602001428152602001888152602001878152602001868152509080600181540180825580915050906001820390600052602060002090600902016000909192909190915060008201518160000155602082015181600101556040820151816002015560608201518160030160006101000a81548173ffffffffffffffffffffffffffffffffffffffff021916908373ffffffffffffffffffffffffffffffffffffffff16021790555060808201518160040160006101000a81548173ffffffffffffffffffffffffffffffffffffffff021916908373ffffffffffffffffffffffffffffffffffffffff16021790555060a0820151816005015560c0820151816006019080519060200190611f5b9291906136d1565b5060e0820151816007019080519060200190611f789291906136d1565b50610100820151816008019080519060200190611f969291906136d1565b5050505060019250611fb5565b80806001019150506118b4565b600092505b50509695505050505050565b600760205281600052604060002081815481101515611fdc57fe5b9060005260206000209060090201600091509150508060000154908060010154908060020154908060030160009054906101000a900473ffffffffffffffffffffffffffffffffffffffff16908060040160009054906101000a900473ffffffffffffffffffffffffffffffffffffffff1690806005015490806006018054600181600116156101000203166002900480601f0160208091040260200160405190810160405280929190818152602001828054600181600116156101000203166002900480156120ed5780601f106120c2576101008083540402835291602001916120ed565b820191906000526020600020905b8154815290600101906020018083116120d057829003601f168201915b505050505090806007018054600181600116156101000203166002900480601f01602080910402602001604051908101604052809291908181526020018280546001816001161561010002031660029004801561218b5780601f106121605761010080835404028352916020019161218b565b820191906000526020600020905b81548152906001019060200180831161216e57829003601f168201915b505050505090806008018054600181600116156101000203166002900480601f0160208091040260200160405190810160405280929190818152602001828054600181600116156101000203166002900480156122295780601f106121fe57610100808354040283529160200191612229565b820191906000526020600020905b81548152906001019060200180831161220c57829003601f168201915b5050505050905089565b6000806000806060600061224687612549565b15156122ba576040517f08c379a00000000000000000000000000000000000000000000000000000000081526004018080602001828103825260158152602001807f4e6f20737563682070726f6475637420666f756e64000000000000000000000081525060200191505060405180910390fd5b600660003373ffffffffffffffffffffffffffffffffffffffff1673ffffffffffffffffffffffffffffffffffffffff168152602001908152602001600020805480602002602001604051908101604052809291908181526020016000905b828210156123c05783829060005260206000209060040201608060405190810160405290816000820160009054906101000a900473ffffffffffffffffffffffffffffffffffffffff1673ffffffffffffffffffffffffffffffffffffffff1673ffffffffffffffffffffffffffffffffffffffff168152602001600182015481526020016002820154815260200160038201548152505081526020019060010190612319565b505050509150600090505b81518110156124d3573373ffffffffffffffffffffffffffffffffffffffff1682828151811015156123f957fe5b906020019060200201516000015173ffffffffffffffffffffffffffffffffffffffff16148015612444575086828281518110151561243457fe5b9060200190602002015160200151145b156124c657818181518110151561245757fe5b9060200190602002015160000151828281518110151561247357fe5b9060200190602002015160200151838381518110151561248f57fe5b906020019060200201516040015184848151811015156124ab57fe5b906020019060200201516060015195509550955095506124d4565b80806001019150506123cb565b5b50509193509193565b6006602052816000526040600020818154811015156124f857fe5b9060005260206000209060040201600091509150508060000160009054906101000a900473ffffffffffffffffffffffffffffffffffffffff16908060010154908060020154908060030154905084565b600060606000600660003373ffffffffffffffffffffffffffffffffffffffff1673ffffffffffffffffffffffffffffffffffffffff168152602001908152602001600020805480602002602001604051908101604052809291908181526020016000905b828210156126555783829060005260206000209060040201608060405190810160405290816000820160009054906101000a900473ffffffffffffffffffffffffffffffffffffffff1673ffffffffffffffffffffffffffffffffffffffff1673ffffffffffffffffffffffffffffffffffffffff1681526020016001820154815260200160028201548152602001600382015481525050815260200190600101906125ae565b505050509150600090505b81518160ff161015612727573373ffffffffffffffffffffffffffffffffffffffff16828260ff1681518110151561269457fe5b906020019060200201516000015173ffffffffffffffffffffffffffffffffffffffff161480156126e2575083828260ff168151811015156126d257fe5b9060200190602002015160200151145b801561270c57506000828260ff168151811015156126fc57fe5b9060200190602002015160600151115b1561271a576001925061272c565b8080600101915050612660565b600092505b5050919050565b60008060008060009054906101000a900473ffffffffffffffffffffffffffffffffffffffff1673ffffffffffffffffffffffffffffffffffffffff163373ffffffffffffffffffffffffffffffffffffffff1614151515612823576040517f08c379a00000000000000000000000000000000000000000000000000000000081526004018080602001828103825260288152602001807f4f6e6c792073746f7265206f776e65722063616e2063616c6c2074686973206681526020017f756e6374696f6e2e00000000000000000000000000000000000000000000000081525060400191505060405180910390fd5b600660003373ffffffffffffffffffffffffffffffffffffffff1673ffffffffffffffffffffffffffffffffffffffff1681526020019081526020016000209150600090505b818054905081101561291957818181548110151561288357fe5b906000526020600020906004020160010154861415151561290c576040517f08c379a000000000000000000000000000000000000000000000000000000000815260040180806020018281038252601c8152602001807f50726f6475637420636f646520616c726561647920657869737473210000000081525060200191505060405180910390fd5b8080600101915050612869565b816080604051908101604052803373ffffffffffffffffffffffffffffffffffffffff168152602001888152602001878152602001868152509080600181540180825580915050906001820390600052602060002090600402016000909192909190915060008201518160000160006101000a81548173ffffffffffffffffffffffffffffffffffffffff021916908373ffffffffffffffffffffffffffffffffffffffff1602179055506020820151816001015560408201518160020155606082015181600301555050506001925050509392505050565b60008060009054906101000a900473ffffffffffffffffffffffffffffffffffffffff1673ffffffffffffffffffffffffffffffffffffffff163373ffffffffffffffffffffffffffffffffffffffff16141515612ade576040517f08c379a00000000000000000000000000000000000000000000000000000000081526004018080602001828103825260288152602001807f4f6e6c792073746f72652061646d696e2063616e2063616c6c2074686973206681526020017f756e6374696f6e2e00000000000000000000000000000000000000000000000081525060400191505060405180910390fd5b8360019080519060200190612af4929190613751565b508260029080519060200190612b0b929190613751565b508160039080519060200190612b22929190613751565b506000809054906101000a900473ffffffffffffffffffffffffffffffffffffffff1673ffffffffffffffffffffffffffffffffffffffff167fa2ba9c6eb31369d23db8c7267a4ebbd91514f65bbc13256e053e7d5728075bcb60016002600360405180806020018060200180602001848103845287818154600181600116156101000203166002900481526020019150805460018160011615610100020316600290048015612c135780601f10612be857610100808354040283529160200191612c13565b820191906000526020600020905b815481529060010190602001808311612bf657829003601f168201915b5050848103835286818154600181600116156101000203166002900481526020019150805460018160011615610100020316600290048015612c965780601f10612c6b57610100808354040283529160200191612c96565b820191906000526020600020905b815481529060010190602001808311612c7957829003601f168201915b5050848103825285818154600181600116156101000203166002900481526020019150805460018160011615610100020316600290048015612d195780601f10612cee57610100808354040283529160200191612d19565b820191906000526020600020905b815481529060010190602001808311612cfc57829003601f168201915b5050965050505050505060405180910390a2600190509392505050565b60008060009054906101000a900473ffffffffffffffffffffffffffffffffffffffff1673ffffffffffffffffffffffffffffffffffffffff163373ffffffffffffffffffffffffffffffffffffffff16141515612e22576040517f08c379a00000000000000000000000000000000000000000000000000000000081526004018080602001828103825260288152602001807f4f6e6c792073746f72652061646d696e2063616e2063616c6c2074686973206681526020017f756e6374696f6e2e00000000000000000000000000000000000000000000000081525060400191505060405180910390fd5b8473ffffffffffffffffffffffffffffffffffffffff163373ffffffffffffffffffffffffffffffffffffffff1614151515612eec576040517f08c379a00000000000000000000000000000000000000000000000000000000081526004018080602001828103825260238152602001807f53746f72652061646d696e2063616e277420626520612073746f7265206f776e81526020017f657221000000000000000000000000000000000000000000000000000000000081525060400191505060405180910390fd5b846004808054809190600101612f0291906137d1565b815481101515612f0e57fe5b9060005260206000200160006101000a81548173ffffffffffffffffffffffffffffffffffffffff021916908373ffffffffffffffffffffffffffffffffffffffff1602179055506080604051908101604052808673ffffffffffffffffffffffffffffffffffffffff16815260200185815260200184815260200183815250600560008773ffffffffffffffffffffffffffffffffffffffff1673ffffffffffffffffffffffffffffffffffffffff16815260200190815260200160002060008201518160000160006101000a81548173ffffffffffffffffffffffffffffffffffffffff021916908373ffffffffffffffffffffffffffffffffffffffff16021790555060208201518160010190805190602001906130309291906136d1565b50604082015181600201908051906020019061304d9291906136d1565b50606082015181600301908051906020019061306a9291906136d1565b50905050849050949350505050565b60608060606000600660003373ffffffffffffffffffffffffffffffffffffffff1673ffffffffffffffffffffffffffffffffffffffff168152602001908152602001600020805480602002602001604051908101604052809291908181526020016000905b828210156131865783829060005260206000209060040201608060405190810160405290816000820160009054906101000a900473ffffffffffffffffffffffffffffffffffffffff1673ffffffffffffffffffffffffffffffffffffffff1673ffffffffffffffffffffffffffffffffffffffff1681526020016001820154815260200160028201548152602001600382015481525050815260200190600101906130df565b50505050925082516040519080825280602002602001820160405280156131bc5781602001602082028038833980820191505090505b509150600090505b82518110156132125782818151811015156131db57fe5b906020019060200201516020015182828151811015156131f757fe5b906020019060200201818152505080806001019150506131c4565b81935050505090565b60006060600080600760003373ffffffffffffffffffffffffffffffffffffffff1673ffffffffffffffffffffffffffffffffffffffff168152602001908152602001600020805480602002602001604051908101604052809291908181526020016000905b8282101561356f578382906000526020600020906009020161012060405190810160405290816000820154815260200160018201548152602001600282015481526020016003820160009054906101000a900473ffffffffffffffffffffffffffffffffffffffff1673ffffffffffffffffffffffffffffffffffffffff1673ffffffffffffffffffffffffffffffffffffffff1681526020016004820160009054906101000a900473ffffffffffffffffffffffffffffffffffffffff1673ffffffffffffffffffffffffffffffffffffffff1673ffffffffffffffffffffffffffffffffffffffff16815260200160058201548152602001600682018054600181600116156101000203166002900480601f0160208091040260200160405190810160405280929190818152602001828054600181600116156101000203166002900480156134135780601f106133e857610100808354040283529160200191613413565b820191906000526020600020905b8154815290600101906020018083116133f657829003601f168201915b50505050508152602001600782018054600181600116156101000203166002900480601f0160208091040260200160405190810160405280929190818152602001828054600181600116156101000203166002900480156134b55780601f1061348a576101008083540402835291602001916134b5565b820191906000526020600020905b81548152906001019060200180831161349857829003601f168201915b50505050508152602001600882018054600181600116156101000203166002900480601f0160208091040260200160405190810160405280929190818152602001828054600181600116156101000203166002900480156135575780601f1061352c57610100808354040283529160200191613557565b820191906000526020600020905b81548152906001019060200180831161353a57829003601f168201915b50505050508152505081526020019060010190613281565b50505050925060009150600090505b82518110156135d157828181518110151561359557fe5b906020019060200201516040015183828151811015156135b157fe5b90602001906020020151602001510282019150808060010191505061357e565b81935050505090565b6000806000600660003373ffffffffffffffffffffffffffffffffffffffff1673ffffffffffffffffffffffffffffffffffffffff1681526020019081526020016000209150600090505b818054905081101561369257818181548110151561363f57fe5b9060005260206000209060040201600101548514156136855783828281548110151561366757fe5b90600052602060002090600402016002018190555060019250613697565b8080600101915050613625565b600092505b505092915050565b8154818355818111156136cc576004028160040283600052602060002091820191016136cb91906137fd565b5b505050565b828054600181600116156101000203166002900490600052602060002090601f016020900481019282601f1061371257805160ff1916838001178555613740565b82800160010185558215613740579182015b8281111561373f578251825591602001919060010190613724565b5b50905061374d919061385b565b5090565b828054600181600116156101000203166002900490600052602060002090601f016020900481019282601f1061379257805160ff19168380011785556137c0565b828001600101855582156137c0579182015b828111156137bf5782518255916020019190600101906137a4565b5b5090506137cd919061385b565b5090565b8154818355818111156137f8578183600052602060002091820191016137f7919061385b565b5b505050565b61385891905b8082111561385457600080820160006101000a81549073ffffffffffffffffffffffffffffffffffffffff021916905560018201600090556002820160009055600382016000905550600401613803565b5090565b90565b61387d91905b80821115613879576000816000905550600101613861565b5090565b905600a165627a7a7230582025280ab3864111103c5a3aca570da49dc08c43b550dc0ca2b334759c64d8f60b0029",
  "source": "pragma solidity ^\"0.4.24\";\r\n\r\nimport \"./OnlineMarketPlaceLibrary.sol\";\r\nimport \"./OnlineMarketPlaceInterface.sol\";\r\nimport \"./StoreAdmin.sol\";\r\n\r\n/* Online Market Place Contract */\r\ncontract OnlineMarketPlace is OnlineMarketPlaceInterface, StoreAdmin {\r\n\r\n    /* Create a struct to store user details */\r\n    struct user {\r\n        address userAddress;\r\n        string firstName;\r\n        string lastName;\r\n        string emailAddress;\r\n    }\r\n\r\n    /* Create a struct to store product details */\r\n    struct product {\r\n        address storeOwnerAddress;\r\n        uint productCode;\r\n        uint price;\r\n        uint quantity;\r\n    }\r\n    \r\n    /* Create a struct to store transaction details */\r\n    struct transaction{\r\n        uint productCode;\r\n        uint price;\r\n        uint quantity;\r\n        address buyerAddress;\r\n        address sellerAddress;\r\n        uint orderedDate;\r\n        string firstName;\r\n        string lastName;\r\n        string deliveryAddress;\r\n    } \r\n\r\n    /* List to hold store owner addresses */\r\n    address[] storeOwnerAddresses;\r\n\r\n    /* Create a mapping that maps the store owners address to an store owner user object */\r\n    mapping (address => user) public storeOwners;\r\n\r\n    /* Create a mapping that maps the store owners address to list of products */\r\n    mapping (address => product[]) public storeOwnerProducts;\r\n    \r\n    /* Create a mapping that maps the store owner address to list of all store transaction */\r\n    mapping (address => transaction[]) public storeTransactions;\r\n    \r\n    /* Get store balance. Note this function can be enhanced easily to withdraw funds from the store */\r\n    function getStoreBalance() public view returns(uint) { \r\n        \r\n        // Get the list of products for this store owner\r\n        transaction[] memory allStoreTransactions = storeTransactions[msg.sender];\r\n\r\n        uint storeBalance = 0;\r\n        for (uint i=0; i < allStoreTransactions.length; i++) {\r\n            // Limitation - Currently I haven't handed the overpay part i.e. in case the client has paid more \r\n            // then this store balance will not reflect the additional paid amount.\r\n            storeBalance = storeBalance + (allStoreTransactions[i].price * allStoreTransactions[i].quantity);\r\n        }\r\n  \r\n        return storeBalance;\r\n    }\r\n    \r\n    /* Buy the product */\r\n    function buyProduct(address _storeOwnerAddress, uint _productCode, uint _quantity, string _firstName, string _lastName, \r\n            string _derliveryAddress) payable public returns (bool) {\r\n       \r\n        // Get the list of products from the store\r\n        product[] storage listOfProducts = storeOwnerProducts[_storeOwnerAddress];\r\n        \r\n        // Iterate through the list of products to check if the product code already exists\r\n        for (uint i=0; i < listOfProducts.length; i++) {\r\n            \r\n            if(_productCode == listOfProducts[i].productCode) {\r\n                // Check to ensure buyer's address is not same as seller's address\r\n                require(listOfProducts[i].storeOwnerAddress != msg.sender, \"Seller is not allow to buy from it's own store :)\");\r\n                \r\n                // Check to see if the seller has required quantity to sell\r\n                require(listOfProducts[i].quantity >= _quantity, \"Sorry the product is currently out of stock. Please try again later.\");\r\n                \r\n                // Check to ensure that buyer has paid enough\r\n                require(msg.value >= OnlineMarketPlaceLibrary.calculateAmount(listOfProducts[i].price, _quantity), \"Amount paid is not enough for this transaction to complete successfully. Please check the amount paid and retry.\");\r\n\r\n                // Transfer the funds from the buyer to seller\r\n                listOfProducts[i].storeOwnerAddress.transfer(msg.value);\r\n\r\n                // Reduce the quantity\r\n                listOfProducts[i].quantity = listOfProducts[i].quantity - _quantity;\r\n                \r\n                // Create a new transaction and store it in the mapping of all store transactions\r\n                storeTransactions[_storeOwnerAddress].push(transaction(_productCode, listOfProducts[i].price, \r\n                        _quantity, msg.sender, listOfProducts[i].storeOwnerAddress, block.timestamp, _firstName, _lastName, _derliveryAddress));\r\n                        \r\n                return true;\r\n            }\r\n        }\r\n        \r\n        return false;\r\n    }\r\n    \r\n    /* Change the product price */\r\n    function changeProductPrice(uint _productCode, uint _newPrice) public returns (bool) {\r\n        // Get the list of products for this store owner\r\n        product[] storage listOfProducts = storeOwnerProducts[msg.sender];\r\n\r\n        // Iterate through the list of products to check if the product code already exists\r\n        for (uint i=0; i < listOfProducts.length; i++) {\r\n            if(_productCode == listOfProducts[i].productCode) {\r\n                listOfProducts[i].price = _newPrice;\r\n                return true;\r\n            }\r\n        }\r\n        \r\n        return false;\r\n    }\r\n\r\n    /* Add a new product to the store owner */\r\n    function addProduct(uint _productCode, uint _price, uint _quantity) public returns (bool) {\r\n        \r\n        // Check to ensure store admin can not any products\r\n        require( msg.sender != storeAdminAddress,  \"Only store owner can call this function.\" );\r\n\r\n        // Get the list of products for this store owner\r\n        product[] storage listOfProducts = storeOwnerProducts[msg.sender];\r\n\r\n        // Iterate through the list of products to check if the product code already exists\r\n        for (uint i=0; i < listOfProducts.length; i++) {\r\n            require (_productCode != listOfProducts[i].productCode, \"Product code already exists!\");\r\n        }\r\n        \r\n        // Add a new product to the list\r\n        listOfProducts.push(product(msg.sender, _productCode, _price, _quantity));\r\n\r\n        return true;\r\n    }\r\n\r\n    /* Remove existing product from the store owner */\r\n    function removeProduct(uint _productCode) public returns (bool) {\r\n\r\n        // Get the list of products for this store owner\r\n        product[] storage listOfProducts = storeOwnerProducts[msg.sender];\r\n\r\n        // Iterate through the list of products to check if the product code already exists\r\n        for (uint i=0; i < listOfProducts.length; i++) {\r\n            if(_productCode == listOfProducts[i].productCode) {\r\n                // Assign the last element of the array to this location\r\n                listOfProducts[i] = listOfProducts[listOfProducts.length-1];\r\n                listOfProducts.length--;\r\n                return true;\r\n            }\r\n        }\r\n        \r\n        return false;\r\n    }\r\n\r\n    /* Get all the product for the store owner */\r\n    function getAllProductCodes() public view returns(uint[]) { \r\n        // Get the list of products for this store owner\r\n        product[] memory listOfProducts = storeOwnerProducts[msg.sender];\r\n\r\n        // Create a list of product codes. Note here the size of the list is equal to the the size of products list\r\n        uint[] memory productCodes = new uint[] (listOfProducts.length);\r\n\r\n        for (uint i=0; i < listOfProducts.length; i++) {\r\n            productCodes[i] = listOfProducts[i].productCode;\r\n        }\r\n  \r\n        return productCodes;\r\n    }\r\n\r\n    /* Check the availability of the product for the store owner */\r\n    function getProductDetails(uint _productCode) public view returns(address, uint, uint, uint) { \r\n        require (checkProductAvailability(_productCode), \"No such product found\");\r\n        \r\n        product[] memory listOfProducts = storeOwnerProducts[msg.sender];\r\n\r\n        for (uint i=0; i < listOfProducts.length; i++) {\r\n            if ((listOfProducts[i].storeOwnerAddress == msg.sender) && listOfProducts[i].productCode == _productCode) {\r\n                return (listOfProducts[i].storeOwnerAddress, listOfProducts[i].productCode,listOfProducts[i].price, listOfProducts[i].quantity) ;\r\n            }\r\n        }\r\n    }\r\n\r\n    /* Check the availability of the product for the store owner */\r\n    function checkProductAvailability(uint _productCode) public view returns(bool) { \r\n        product[] memory listOfProducts = storeOwnerProducts[msg.sender];\r\n\r\n        for (uint8 i=0; i < listOfProducts.length; i++) {\r\n            if ((listOfProducts[i].storeOwnerAddress == msg.sender) && (listOfProducts[i].productCode == _productCode) \r\n                    && listOfProducts[i].quantity > 0) {\r\n                return true;\r\n            }\r\n        }\r\n  \r\n        return false;\r\n    }\r\n\r\n    /* This function will allow store admin to new store owners */\r\n    function addStoreOwner(address _storeOwnerAddress, string _firstName, string _lastName, string _emailAddress) public isStoreAdmin() returns (address){ \r\n        \r\n        // Check to ensure store admin is not store owner\r\n        require(msg.sender != _storeOwnerAddress, \"Store admin can't be a store owner!\");\r\n        \r\n        storeOwnerAddresses[storeOwnerAddresses.length++] = _storeOwnerAddress;\r\n        storeOwners[_storeOwnerAddress] = user(_storeOwnerAddress, _firstName, _lastName, _emailAddress);\r\n        return _storeOwnerAddress;\r\n    }\r\n\r\n    /* Get all store owners addresses*/\r\n    function getAllStoreOwners() public view returns(address[]) {\r\n        return storeOwnerAddresses;\r\n    }\r\n\r\n    /* Get store owner details */\r\n    function getStoreOwnerDetails(address _storeOwnerAddress) public constant returns(address, string, string, string) {\r\n        return (storeOwners[_storeOwnerAddress].userAddress, storeOwners[_storeOwnerAddress].firstName, \r\n                storeOwners[_storeOwnerAddress].lastName, storeOwners[_storeOwnerAddress].emailAddress);\r\n    }\r\n}",
  "sourcePath": "/mnt/d/online-market-project/contracts/OnlineMarketPlace.sol",
  "compiler": {
    "name": "solc",
    "version": "0.4.24+commit.e67f0147.Emscripten.clang"
  },
  "schemaVersion": "2.0.1",
  "updatedAt": "2018-08-27T18:53:43.990Z"
}