{
  "contractName": "StoreAdmin",
  "abi": [
    {
      "inputs": [],
      "payable": false,
      "stateMutability": "nonpayable",
      "type": "constructor"
    },
    {
      "anonymous": false,
      "inputs": [
        {
          "indexed": true,
          "name": "storeAdminAddress",
          "type": "address"
        },
        {
          "indexed": false,
          "name": "firstName",
          "type": "string"
        },
        {
          "indexed": false,
          "name": "lastName",
          "type": "string"
        },
        {
          "indexed": false,
          "name": "emailAddress",
          "type": "string"
        }
      ],
      "name": "storeOwnerRegistrationEvent",
      "type": "event"
    },
    {
      "constant": false,
      "inputs": [
        {
          "name": "_firstName",
          "type": "string"
        },
        {
          "name": "_lastName",
          "type": "string"
        },
        {
          "name": "_emailAddress",
          "type": "string"
        }
      ],
      "name": "registerStoreAdminDetails",
      "outputs": [
        {
          "name": "",
          "type": "bool"
        }
      ],
      "payable": false,
      "stateMutability": "nonpayable",
      "type": "function"
    },
    {
      "constant": true,
      "inputs": [],
      "name": "getStoreAdminDetails",
      "outputs": [
        {
          "name": "",
          "type": "address"
        },
        {
          "name": "",
          "type": "string"
        },
        {
          "name": "",
          "type": "string"
        },
        {
          "name": "",
          "type": "string"
        }
      ],
      "payable": false,
      "stateMutability": "view",
      "type": "function"
    }
  ],
  "bytecode": "0x608060405234801561001057600080fd5b50336000806101000a81548173ffffffffffffffffffffffffffffffffffffffff021916908373ffffffffffffffffffffffffffffffffffffffff16021790555061091f806100606000396000f30060806040526004361061004c576000357c0100000000000000000000000000000000000000000000000000000000900463ffffffff16806330e8459d14610051578063e2175339146101ec575b600080fd5b34801561005d57600080fd5b506100666102f9565b604051808573ffffffffffffffffffffffffffffffffffffffff1673ffffffffffffffffffffffffffffffffffffffff168152602001806020018060200180602001848103845287818151815260200191508051906020019080838360005b838110156100e05780820151818401526020810190506100c5565b50505050905090810190601f16801561010d5780820380516001836020036101000a031916815260200191505b50848103835286818151815260200191508051906020019080838360005b8381101561014657808201518184015260208101905061012b565b50505050905090810190601f1680156101735780820380516001836020036101000a031916815260200191505b50848103825285818151815260200191508051906020019080838360005b838110156101ac578082015181840152602081019050610191565b50505050905090810190601f1680156101d95780820380516001836020036101000a031916815260200191505b5097505050505050505060405180910390f35b3480156101f857600080fd5b506102df600480360381019080803590602001908201803590602001908080601f0160208091040260200160405190810160405280939291908181526020018383808284378201915050505050509192919290803590602001908201803590602001908080601f0160208091040260200160405190810160405280939291908181526020018383808284378201915050505050509192919290803590602001908201803590602001908080601f016020809104026020016040519081016040528093929190818152602001838380828437820191505050505050919291929050505061050a565b604051808215151515815260200191505060405180910390f35b600060608060606000809054906101000a900473ffffffffffffffffffffffffffffffffffffffff16600160026003828054600181600116156101000203166002900480601f0160208091040260200160405190810160405280929190818152602001828054600181600116156101000203166002900480156103bd5780601f10610392576101008083540402835291602001916103bd565b820191906000526020600020905b8154815290600101906020018083116103a057829003601f168201915b50505050509250818054600181600116156101000203166002900480601f0160208091040260200160405190810160405280929190818152602001828054600181600116156101000203166002900480156104595780601f1061042e57610100808354040283529160200191610459565b820191906000526020600020905b81548152906001019060200180831161043c57829003601f168201915b50505050509150808054600181600116156101000203166002900480601f0160208091040260200160405190810160405280929190818152602001828054600181600116156101000203166002900480156104f55780601f106104ca576101008083540402835291602001916104f5565b820191906000526020600020905b8154815290600101906020018083116104d857829003601f168201915b50505050509050935093509350935090919293565b60008060009054906101000a900473ffffffffffffffffffffffffffffffffffffffff1673ffffffffffffffffffffffffffffffffffffffff163373ffffffffffffffffffffffffffffffffffffffff161415156105f6576040517f08c379a00000000000000000000000000000000000000000000000000000000081526004018080602001828103825260288152602001807f4f6e6c792073746f72652061646d696e2063616e2063616c6c2074686973206681526020017f756e6374696f6e2e00000000000000000000000000000000000000000000000081525060400191505060405180910390fd5b836001908051906020019061060c92919061084e565b50826002908051906020019061062392919061084e565b50816003908051906020019061063a92919061084e565b506000809054906101000a900473ffffffffffffffffffffffffffffffffffffffff1673ffffffffffffffffffffffffffffffffffffffff167fa2ba9c6eb31369d23db8c7267a4ebbd91514f65bbc13256e053e7d5728075bcb6001600260036040518080602001806020018060200184810384528781815460018160011615610100020316600290048152602001915080546001816001161561010002031660029004801561072b5780601f106107005761010080835404028352916020019161072b565b820191906000526020600020905b81548152906001019060200180831161070e57829003601f168201915b50508481038352868181546001816001161561010002031660029004815260200191508054600181600116156101000203166002900480156107ae5780601f10610783576101008083540402835291602001916107ae565b820191906000526020600020905b81548152906001019060200180831161079157829003601f168201915b50508481038252858181546001816001161561010002031660029004815260200191508054600181600116156101000203166002900480156108315780601f1061080657610100808354040283529160200191610831565b820191906000526020600020905b81548152906001019060200180831161081457829003601f168201915b5050965050505050505060405180910390a2600190509392505050565b828054600181600116156101000203166002900490600052602060002090601f016020900481019282601f1061088f57805160ff19168380011785556108bd565b828001600101855582156108bd579182015b828111156108bc5782518255916020019190600101906108a1565b5b5090506108ca91906108ce565b5090565b6108f091905b808211156108ec5760008160009055506001016108d4565b5090565b905600a165627a7a72305820ad761e3af9078ea30c550b64dca0bbf19f1424d99063cd27b36b2c5b558d88df0029",
  "source": "pragma solidity ^\"0.4.24\";\r\n\r\n/* Store Admin Contract */\r\ncontract StoreAdmin {\r\n\r\n    // Store admin address\r\n    address storeAdminAddress;\r\n\r\n    // Store admin first name\r\n    string firstName;\r\n\r\n    // Store admin last name\r\n    string lastName;\r\n\r\n    // Store admin email address\r\n    string emailAddress;\r\n\r\n    event storeOwnerRegistrationEvent(address indexed storeAdminAddress, string firstName, string lastName, string emailAddress);\r\n\r\n    // Create a modifer that checks if the msg.sender is the owner of the contract\r\n    modifier isStoreAdmin() { require( msg.sender == storeAdminAddress,  \"Only store admin can call this function.\" ); _;}\r\n\r\n    // Default constructor   \r\n    constructor() public {\r\n        storeAdminAddress = msg.sender;\r\n    }\r\n   \r\n    /* Register store admin details */\r\n    function registerStoreAdminDetails(string _firstName, string _lastName, string _emailAddress) public isStoreAdmin() returns (bool) {\r\n         firstName = _firstName;\r\n         lastName = _lastName;\r\n         emailAddress = _emailAddress;\r\n\r\n        emit storeOwnerRegistrationEvent (storeAdminAddress, firstName, lastName, emailAddress);\r\n\r\n        return true;\r\n    }\r\n\r\n/* Get store admin details */\r\n    function getStoreAdminDetails() public view returns(address, string, string, string) {\r\n        return (storeAdminAddress, firstName, lastName, emailAddress);\r\n    }\r\n}",
  "sourcePath": "/mnt/d/online-market-project/contracts/StoreAdmin.sol",
  "compiler": {
    "name": "solc",
    "version": "0.4.24+commit.e67f0147.Emscripten.clang"
  },
  "schemaVersion": "2.0.1",
  "updatedAt": "2018-08-27T18:52:48.114Z"
}