{
  "contractName": "StoreAdmin",
  "abi": [
    {
      "constant": true,
      "inputs": [],
      "name": "stopped",
      "outputs": [
        {
          "name": "",
          "type": "bool"
        }
      ],
      "payable": false,
      "stateMutability": "view",
      "type": "function"
    },
    {
      "inputs": [],
      "payable": false,
      "stateMutability": "nonpayable",
      "type": "constructor"
    },
    {
      "anonymous": false,
      "inputs": [
        {
          "indexed": true,
          "name": "storeAdminAddress",
          "type": "address"
        },
        {
          "indexed": false,
          "name": "firstName",
          "type": "string"
        },
        {
          "indexed": false,
          "name": "lastName",
          "type": "string"
        },
        {
          "indexed": false,
          "name": "emailAddress",
          "type": "string"
        },
        {
          "indexed": false,
          "name": "stopped",
          "type": "bool"
        }
      ],
      "name": "storeOwnerRegistrationEvent",
      "type": "event"
    },
    {
      "constant": false,
      "inputs": [
        {
          "name": "_firstName",
          "type": "string"
        },
        {
          "name": "_lastName",
          "type": "string"
        },
        {
          "name": "_emailAddress",
          "type": "string"
        },
        {
          "name": "_stopped",
          "type": "bool"
        }
      ],
      "name": "registerStoreAdminDetails",
      "outputs": [
        {
          "name": "",
          "type": "bool"
        }
      ],
      "payable": false,
      "stateMutability": "nonpayable",
      "type": "function"
    },
    {
      "constant": true,
      "inputs": [],
      "name": "getStoreAdminDetails",
      "outputs": [
        {
          "name": "",
          "type": "address"
        },
        {
          "name": "",
          "type": "string"
        },
        {
          "name": "",
          "type": "string"
        },
        {
          "name": "",
          "type": "string"
        },
        {
          "name": "",
          "type": "bool"
        }
      ],
      "payable": false,
      "stateMutability": "view",
      "type": "function"
    }
  ],
  "bytecode": "0x608060405260008060006101000a81548160ff02191690831515021790555034801561002a57600080fd5b5033600060016101000a81548173ffffffffffffffffffffffffffffffffffffffff021916908373ffffffffffffffffffffffffffffffffffffffff1602179055506109cb8061007b6000396000f300608060405260043610610057576000357c0100000000000000000000000000000000000000000000000000000000900463ffffffff16806322d69f7a1461005c57806330e8459d1461017557806375f12b211461031b575b600080fd5b34801561006857600080fd5b5061015b600480360381019080803590602001908201803590602001908080601f0160208091040260200160405190810160405280939291908181526020018383808284378201915050505050509192919290803590602001908201803590602001908080601f0160208091040260200160405190810160405280939291908181526020018383808284378201915050505050509192919290803590602001908201803590602001908080601f016020809104026020016040519081016040528093929190818152602001838380828437820191505050505050919291929080351515906020019092919050505061034a565b604051808215151515815260200191505060405180910390f35b34801561018157600080fd5b5061018a6106c3565b604051808673ffffffffffffffffffffffffffffffffffffffff1673ffffffffffffffffffffffffffffffffffffffff16815260200180602001806020018060200185151515158152602001848103845288818151815260200191508051906020019080838360005b8381101561020e5780820151818401526020810190506101f3565b50505050905090810190601f16801561023b5780820380516001836020036101000a031916815260200191505b50848103835287818151815260200191508051906020019080838360005b83811015610274578082015181840152602081019050610259565b50505050905090810190601f1680156102a15780820380516001836020036101000a031916815260200191505b50848103825286818151815260200191508051906020019080838360005b838110156102da5780820151818401526020810190506102bf565b50505050905090810190601f1680156103075780820380516001836020036101000a031916815260200191505b509850505050505050505060405180910390f35b34801561032757600080fd5b506103306108e8565b604051808215151515815260200191505060405180910390f35b60008060019054906101000a900473ffffffffffffffffffffffffffffffffffffffff1673ffffffffffffffffffffffffffffffffffffffff163373ffffffffffffffffffffffffffffffffffffffff16141515610436576040517f08c379a00000000000000000000000000000000000000000000000000000000081526004018080602001828103825260288152602001807f4f6e6c792073746f72652061646d696e2063616e2063616c6c2074686973206681526020017f756e6374696f6e2e00000000000000000000000000000000000000000000000081525060400191505060405180910390fd5b846001908051906020019061044c9291906108fa565b5083600290805190602001906104639291906108fa565b50826003908051906020019061047a9291906108fa565b50816000806101000a81548160ff021916908315150217905550600060019054906101000a900473ffffffffffffffffffffffffffffffffffffffff1673ffffffffffffffffffffffffffffffffffffffff167f1dc7a2141ebeb398758fc738d5d19357c3c9efff72f48ed15481d02e5c6e41aa6001600260036000809054906101000a900460ff16604051808060200180602001806020018515151515815260200184810384528881815460018160011615610100020316600290048152602001915080546001816001161561010002031660029004801561059e5780601f106105735761010080835404028352916020019161059e565b820191906000526020600020905b81548152906001019060200180831161058157829003601f168201915b50508481038352878181546001816001161561010002031660029004815260200191508054600181600116156101000203166002900480156106215780601f106105f657610100808354040283529160200191610621565b820191906000526020600020905b81548152906001019060200180831161060457829003601f168201915b50508481038252868181546001816001161561010002031660029004815260200191508054600181600116156101000203166002900480156106a45780601f10610679576101008083540402835291602001916106a4565b820191906000526020600020905b81548152906001019060200180831161068757829003601f168201915b505097505050505050505060405180910390a260019050949350505050565b6000606080606060008060019054906101000a900473ffffffffffffffffffffffffffffffffffffffff166001600260036000809054906101000a900460ff16838054600181600116156101000203166002900480601f0160208091040260200160405190810160405280929190818152602001828054600181600116156101000203166002900480156107985780601f1061076d57610100808354040283529160200191610798565b820191906000526020600020905b81548152906001019060200180831161077b57829003601f168201915b50505050509350828054600181600116156101000203166002900480601f0160208091040260200160405190810160405280929190818152602001828054600181600116156101000203166002900480156108345780601f1061080957610100808354040283529160200191610834565b820191906000526020600020905b81548152906001019060200180831161081757829003601f168201915b50505050509250818054600181600116156101000203166002900480601f0160208091040260200160405190810160405280929190818152602001828054600181600116156101000203166002900480156108d05780601f106108a5576101008083540402835291602001916108d0565b820191906000526020600020905b8154815290600101906020018083116108b357829003601f168201915b50505050509150945094509450945094509091929394565b6000809054906101000a900460ff1681565b828054600181600116156101000203166002900490600052602060002090601f016020900481019282601f1061093b57805160ff1916838001178555610969565b82800160010185558215610969579182015b8281111561096857825182559160200191906001019061094d565b5b509050610976919061097a565b5090565b61099c91905b80821115610998576000816000905550600101610980565b5090565b905600a165627a7a72305820c37d02e6c76aab31ae906c07083228386172ac6fedc66c6c1510e75fd66d54d60029",
  "source": "pragma solidity ^\"0.4.24\";\r\n\r\n/* Store Admin Contract */\r\ncontract StoreAdmin {\r\n\r\n    // Emergency flag\r\n    bool public stopped = false;\r\n\r\n    // Store admin address\r\n    address storeAdminAddress;\r\n\r\n    // Store admin first name\r\n    string firstName;\r\n\r\n    // Store admin last name\r\n    string lastName;\r\n\r\n    // Store admin email address\r\n    string emailAddress;\r\n\r\n    /* Log an event when the store admin registers */\r\n    event storeOwnerRegistrationEvent(address indexed storeAdminAddress, string firstName, string lastName, string emailAddress, bool stopped);\r\n\r\n    // Modifier to stop the flow in case of an emergency\r\n    modifier stopInEmergency { require (!stopped); _;}\r\n\r\n    // Modifier to withdraw funds once the emergency stop is applied \r\n    modifier onlyInEmergency { require (stopped); _;}\r\n\r\n    // Create a modifer that checks if the msg.sender is the owner of the contract\r\n    modifier isStoreAdmin() { require( msg.sender == storeAdminAddress,  \"Only store admin can call this function.\" ); _;}\r\n\r\n    // Default constructor   \r\n    constructor() public {\r\n        storeAdminAddress = msg.sender;\r\n    }\r\n   \r\n    /* Register store admin details */\r\n    function registerStoreAdminDetails(string _firstName, string _lastName, string _emailAddress, bool _stopped) public isStoreAdmin() returns (bool) {\r\n         firstName = _firstName;\r\n         lastName = _lastName;\r\n         emailAddress = _emailAddress;\r\n         stopped = _stopped;\r\n\r\n        /* Log an event when the store admin registers */\r\n        emit storeOwnerRegistrationEvent (storeAdminAddress, firstName, lastName, emailAddress, stopped);\r\n\r\n        return true;\r\n    }\r\n\r\n    /* Get store admin details */\r\n    function getStoreAdminDetails() public view returns(address, string, string, string, bool) {\r\n        return (storeAdminAddress, firstName, lastName, emailAddress, stopped);\r\n    }\r\n}",
  "sourcePath": "/mnt/d/online-market-project/contracts/StoreAdmin.sol",
  "compiler": {
    "name": "solc",
    "version": "0.4.24+commit.e67f0147.Emscripten.clang"
  },
  "schemaVersion": "2.0.1",
  "updatedAt": "2018-08-28T10:57:59.343Z"
}